:020000040800F2
:1000000000400220A12C00088D2A0008932A000835
:1000100000000000000000000000000000000000E0
:10002000000000000000000000000000992A000805
:100030000000000000000000A32A0008AD2A00080C
:10004000F12C0008F12C0008F12C0008F12C00081C
:10005000F12C0008BB2A0008F12C0008F12C000844
:10006000F12C0008CB2A0008D92A0008F12C00083E
:10007000F12C0008F12C0008F12C0008F12C0008EC
:10008000F12C0008E92A0008F12C0008F12C0008E6
:10009000F12C0008F12C0008F12C0008F12C0008CC
:1000A000F12C0008F12C0008012B0008F12C0008AD
:0C00B000F12C0008F12C0008F12C0008D5
:1000BC0010B5064C2378002B07D1054B002B02D032
:1000CC00044800E000BF0123237010BD98000020FD
:1000DC0000000000F4450108044B10B5002B03D0C0
:1000EC000349044800E000BF10BDC04600000000FA
:1000FC009C000020F445010802B4714649084900EF
:10010C00095C49008E4402BC7047C04603B471467A
:10011C00490840004900095E49008E4403BC704701
:10012C00002243088B4274D303098B425FD3030A2A
:10013C008B4244D3030B8B4228D3030C8B420DD33D
:10014C00FF22090212BA030C8B4202D312120902CB
:10015C0065D0030B8B4219D300E0090AC30B8B4209
:10016C0001D3CB03C01A5241830B8B4201D38B03B7
:10017C00C01A5241430B8B4201D34B03C01A52415C
:10018C00030B8B4201D30B03C01A5241C30A8B429F
:10019C0001D3CB02C01A5241830A8B4201D38B028A
:1001AC00C01A5241430A8B4201D34B02C01A52412E
:1001BC00030A8B4201D30B02C01A5241CDD2C309A0
:1001CC008B4201D3CB01C01A524183098B4201D31C
:1001DC008B01C01A524143098B4201D34B01C01A07
:1001EC00524103098B4201D30B01C01A5241C3087F
:1001FC008B4201D3CB00C01A524183088B4201D3EE
:10020C008B00C01A524143088B4201D34B00C01AD9
:10021C005241411A00D20146524110467047FFE745
:10022C0001B5002000F0F0F802BDC0460029F7D05F
:10023C0076E7704703460B437FD4002243088B427A
:10024C0074D303098B425FD3030A8B4244D3030B51
:10025C008B4228D3030C8B420DD3FF22090212BA16
:10026C00030C8B4202D31212090265D0030B8B4292
:10027C0019D300E0090AC30B8B4201D3CB03C01A7C
:10028C005241830B8B4201D38B03C01A5241430B57
:10029C008B4201D34B03C01A5241030B8B4201D347
:1002AC000B03C01A5241C30A8B4201D3CB02C01AB2
:1002BC005241830A8B4201D38B02C01A5241430A2A
:1002CC008B4201D34B02C01A5241030A8B4201D319
:1002DC000B02C01A5241CDD2C3098B4201D3CB01C0
:1002EC00C01A524183098B4201D38B01C01A52416F
:1002FC0043098B4201D34B01C01A524103098B4273
:10030C0001D30B01C01A5241C3088B4201D3CB005D
:10031C00C01A524183088B4201D38B00C01A524140
:10032C0043088B4201D34B00C01A5241411A00D2F0
:10033C0001465241104670475DE0CA0F00D0494259
:10034C00031000D34042534000229C4603098B42C9
:10035C002DD3030A8B4212D3FC22890112BA030A51
:10036C008B420CD3890192118B4208D389019211D3
:10037C008B4204D389013AD0921100E08909C30958
:10038C008B4201D3CB01C01A524183098B4201D35A
:10039C008B01C01A524143098B4201D34B01C01A45
:1003AC00524103098B4201D30B01C01A5241C308BD
:1003BC008B4201D3CB00C01A524183088B4201D32C
:1003CC008B00C01A5241D9D243088B4201D34B0047
:1003DC00C01A5241411A00D20146634652415B1089
:1003EC00104601D34042002B00D54942704763466A
:1003FC005B1000D3404201B5002000F005F802BDAF
:10040C000029F8D016E770477047C0468446081C90
:10041C006146FFE71FB500F04FFB002801D4002117
:10042C00C8421FBD10B500F0D3FA4042013010BDD8
:10043C0010B500F041FB002801DB002010BD0120AD
:10044C0010BDC04610B500F037FB002801DD0020C0
:10045C0010BD012010BDC04610B500F0E1FA002817
:10046C0001DC002010BD012010BDC04610B500F00D
:10047C00D7FA002801DA002010BD012010BDC046BB
:10048C00F0B54646D6464F464D024202C0B5520A1A
:10049C006E0A4700B0463F0E4E00C40FD000944683
:1004AC003B008246360EC90FAD098C426DD0B81B8D
:1004BC00814600284DDD002E00D188E0FF2F5AD058
:1004CC008023DB041D434B4601221B2B0ADC2B0033
:1004DC004A464946D3402022521A95402A00551EBE
:1004EC00AA411A4353469A1A530100D4B9E0920117
:1004FC009609300000F072FE05388640874200DD18
:10050C00D4E03300C71B20200137FB40C71BBE4083
:10051C003200561EB24100271A43530704D00F2352
:10052C001340042B00D00432530100D49CE07B1CFC
:10053C00FE2F00D19AE09201520A9446DBB2D80504
:10054C006346E40718432043E0BCBA46B146A846CC
:10055C00F0BD002849D0F31B002F00D0B6E0524666
:10056C00002A60D0013B002B00D1FCE0FF2E00D014
:10057C00B4E00C004246002A78D08020C00310431F
:10058C004202530A9C46FF23D9E7B91B002971DDAF
:10059C00002E3FD0FF2FEED08023DB041D43012221
:1005AC001B2907DC2A002023CA40591A8D406B1ED8
:1005BC009D412A435244530153D50137FF2F55D047
:1005CC0001237B49134052080A401A43A5E7002D2A
:1005DC002CD001235B429C46E1444B46002B00D1BE
:1005EC00ADE0FF2F00D06EE7C5E7FE207E1C304249
:1005FC0060D1002F00D093E05246002A00D1B6E023
:10060C00002D9CD0521B500100D4C3E053460C006B
:10061C00EA1A82E7002D09D00139002900D18BE0BC
:10062C00FF2FBCD1A7E70C0042463700FF2FA2D00A
:10063C005202530A9C46FBB281E7FE210137394234
:10064C0065D1002B7ED1002800D1AAE0002D00D16D
:10065C0075E72A0052440027530102D5554B013748
:10066C001A40530700D05AE7D208DFE70022FF23D5
:10067C00944664E70029E0D0F31B002F3ED0FF2EF8
:10068C0000D177E780220100D20411438A4601226F
:10069C001B2B08DC524620215046DA40CB1A9840DE
:1006AC00431E984102433700521984E7414A3F1ACE
:1006BC00324032E753465E1B73012DD4002E00D01E
:1006CC0017E7002200240023944638E7FF2E00D1C0
:1006DC004FE780225046D2041043824601221B2B46
:1006EC0008DC524620245046DA40E31A9840431E58
:1006FC00984102430C003700AA1AF5E6002893D063
:10070C00013B002B4FD0FF2EC1D1424633E7FF2FC8
:10071C00ACD055446A08A4E753460C00EE1AE8E640
:10072C005346002B28D1002D00D022E78023DB0379
:10073C009C460024FF2302E72A0052443BE7534621
:10074C005A1BD1E6002800D114E7002D00D112E786
:10075C008023DB031A4200D10DE74146194200D039
:10076C0009E7424607E70C003700AA1ABCE6002D41
:10077C0013D00C00C446E2E6002D00D1FBE680232A
:10078C00DB031A4200D1F6E64046184200D0F2E6EE
:10079C000C00EFE6002A00D063E700220024944608
:1007AC00CDE6C446CBE62A003700524403E7C046E8
:1007BC00FFFFFF7DFFFFFFFBF0B54F464646D646D9
:1007CC004502C0B547000C1C6D0A3F0EC60F002F2A
:1007DC0066D0FF2F6CD00023EA00802599469A46FC
:1007EC00ED0415437F3F60026100430A9846090EF1
:1007FC00E40F002948D0FF2910D08022D800D20461
:10080C000243904600207F394A4633007F1A024348
:10081C006C4992008A586340DBB29746002B6DD12D
:10082C000220FF3F33E000239846260045468246CF
:10083C005346022B00D17FE0032B00D194E0012B17
:10084C0017D038007F3000285FDD6B0704D00F23F2
:10085C002B40042B00D004352B0103D538005A4B08
:10086C0080301D40FE2867DCAD016D0AC0B202E08D
:10087C001E0000200025C0052843F6073043E0BCCD
:10088C00BA46B146A846F0BD002B2BD101204A46F2
:10089C0033004E49024392008A586340DBB29746BC
:1008AC00002D13D104239946033B00279A469AE75F
:1008BC00002D05D108239946063BFF279A4692E75F
:1008CC000C239946093BFF279A468CE7280000F039
:1008DC0085FC7627431F9D4000237F4299469A460C
:1008EC003F1A80E7180000F079FC4246431F76213E
:1008FC009A404942091A9046002085E7FF210320BF
:10090C0082E71E00FF200025B5E701231B1A1B2BD5
:10091C00AFDC9E372900BD40D9406A1E95410D437E
:10092C006B0704D00F232B40042B00D004356B0134
:10093C0044D5012000259EE7FF2000259BE780255C
:10094C000026FF20ED0396E7002398468020C00385
:10095C00054209D04346034206D1454605436D0284
:10096C002600FF206D0A86E78020C00305436D0238
:10097C00FF206D0A7FE741466A014801824219D285
:10098C001B210025013F012614006D005200002C94
:10099C0001DB904201D8121A354301390029F3D1F9
:1009AC00501E824138007F301E001543002800DDA8
:1009BC004BE7AAE71A210125121AE4E7AD01002042
:1009CC006D0A58E794580108FFFFFFF7D458010847
:1009DC0070B542004E024C0045026D0A120EC30F58
:1009EC00760A240EC90FFF2A0FD0FF2C11D001203C
:1009FC00A24200D070BDB542FCD18B420DD0002A72
:100A0C00F8D12800451EA841F4E70120002DF1D1B2
:100A1C00EBE70120002EEDD1E9E70020EAE7C04624
:100A2C00F0B5420046024D024C00C30F760A120E7E
:100A3C006D0A240EC80FFF2A1FD0FF2C10D0002ADD
:100A4C001FD171427141002C01D1002D1ED0002903
:100A5C000ED183421ED00221581E08400138F0BD31
:100A6C00002D26D1002AF4D1714271410029F0D019
:100A7C000028F4D101204042F1E7002E19D1FF2CBF
:100A8C00EED0002CE5D1002DE3D1E4E70020002EC0
:100A9C00E5D0E0E7A24205DCEADBAE4202D8E7D3C0
:100AAC000020DCE741424141484202210840013824
:100ABC00D5E702204042D2E7F0B5420046024D0293
:100ACC004C00C30F760A120E6D0A240EC80FFF2AB3
:100ADC000DD0FF2C0FD0002A23D171427141002C74
:100AEC000FD1002D0DD10020002E14D00DE0002EC2
:100AFC0010D1FF2C15D1002D0CD1002A03D171423D
:100B0C007141002908D1834210D00221581E08409F
:100B1C00013800E00220F0BD0028FCD10120404249
:100B2C00F9E7002CEFD1002DEDD1EEE7A24205DC68
:100B3C00F2DBAE4202D8EFD30020ECE74142414158
:100B4C004842022108400138E5E7C046F8B557464F
:100B5C004E464546DE464402E0B545000F1C640A8D
:100B6C002D0EC60F002D47D0FF2D4DD00023802019
:100B7C009A469B46E400C00404437F3D7802430A36
:100B8C0099467A00FB0F9846120E4B4644D0FF2A2A
:100B9C0011D0D8008023DB040343994600207F3A10
:100BAC00AD18474653467740691C0F2B3FD8724A05
:100BBC009B00D3589F46FF35002B00D079E052465E
:100BCC0002231A4392460220EBE747464C468346E3
:100BDC005B46022B28D0032B00D1C6E0012B4FD152
:100BEC0000200024C005FF0720433843F0BCBB465F
:100BFC00B246A946A046F8BD002C71D104239A46F2
:100C0C00033B00259B46B9E7002C63D108239A4689
:100C1C00063BFF259B46B1E7002B50D152460133D2
:100C2C001A4392460120BCE7FF200024DAE748462D
:100C3C00260C2404220C0404240C4B4620001B0C10
:100C4C00504374435A435E431219030C9B189C4245
:100C5C0003D9802252029446664400041A04000C04
:100C6C0012189401601E84411B0C920E9B191443A4
:100C7C009B011C431B0172D50120630804401C43DB
:100C8C0008007F3000283CDD630704D00F2323408D
:100C9C00042B00D00434230103D580310800374BDA
:100CAC001C40FE28C0DCA401640AC0B29AE73700DD
:100CBC008EE7524603231A439246032071E74846B7
:100CCC0000F08CFA4A46431F9A402D1A9146002098
:100CDC00763D66E70C239A46093BFF259B464DE77C
:100CEC00200000F07BFA7625431F9C4000236D42C8
:100CFC009A469B462D1A41E780240027FF20E403E7
:100D0C0070E701231B1A1B2B00DD69E79E312000C5
:100D1C008C40D840631E9C410443630704D00F23CE
:100D2C002340042B00D0043463011AD50120002485
:100D3C0058E78020C003044209D04B46034206D139
:100D4C004C46044364024746FF20640A4AE780206D
:100D5C00C003044364023700FF20640A42E7290001
:100D6C008EE7A4010020640A3CE78020C003044302
:100D7C006402FF20640A35E714590108FFFFFFF7EE
:100D8C00F0B54646D6464F4643025B0ADA00944617
:100D9C004A02C0B54400560A051CB046240E4E004B
:100DAC0092091F0020009246ED0F360EC90FFF2E40
:100DBC0000D17FE0012251408D4251D0A21B9146BF
:100DCC00002A00DC7EE0002E00D199E0FF2C00D13F
:100DDC008CE080235246DB041A4392464A46012398
:100DEC001B2A08DC53462021D340891A52468A40DC
:100DFC00511E8A4113436246D31A5A0100D4F3E0C0
:100E0C009B019E09300000F0E9F9053886408442C8
:100E1C0000DDF7E03200041B20200134E240041B0B
:100E2C00A64033005E1EB341002413435A0704D07E
:100E3C000F221A40042A00D004335A0100D4D6E001
:100E4C00621CFE2C00D1DAE09B015F0AD0B2C00517
:100E5C003843ED072843E0BCBA46B146A846F0BD7E
:100E6C00A21B9146002A63DD002E00D199E0FF2CD5
:100E7C003CD080235246DB041A4392464A46012357
:100E8C001B2A08DC53462021D340891A52468A403B
:100E9C00511E8A41134363445A0100D4A4E0013427
:100EAC00FF2C00D1ABE0012297491A405B080B40A4
:100EBC001343BBE7002A32D08D4235D0FF22524279
:100ECC009146A1444A46002A51D0301B002C00D038
:100EDC009CE06346002B00D1DFE00138002800D1F4
:100EEC00F7E0FF2E00D099E00D004346002B00D117
:100EFC0085E08027FF031F437F02FF207F0AA6E7C0
:100F0C005246002A74D0012252429046C1444A46AD
:100F1C00002A00D1C8E0FF2C00D05FE7E6E70122F1
:100F2C005140A94200D049E7FF2252429146A144C8
:100F3C004A46002A43D0311B002C00D18CE0FF2EF6
:100F4C0000D192E080236246DB041A4394460123CD
:100F5C001B2909DC202063466246CB40411A8A409B
:100F6C001100481E81410B433400534494E7FE2288
:100F7C00661C324264D1002C00D082E06346002B08
:100F8C0000D1ABE05346002B00D160E763465246DC
:100F9C009B1A5A0100D4AAE0634652460D00D31A9C
:100FAC0044E75246002A23D0012252429046C144C3
:100FBC004A46002A75D0FF2C00D05FE796E7FE2644
:100FCC000134264253D1002872D16346002B00D144
:100FDC0093E05346002B00D139E7634400245A01B7
:100FEC0002D54A4A013413405A0700D020E7DB08E7
:100FFC00FF2C00D17AE75B025F0AE0B227E7FF2003
:10100C00002724E7414B241A33400FE7FF2E00D171
:10101C006AE780236246DB041A43944601231B28AB
:10102C0009DC202463466246C340201A824010002B
:10103C00441EA041034352460D003400D31ADCE693
:10104C00634652469E1A730117D4002E00D0D9E67F
:10105C00002500200027FAE66346002B44D0013916
:10106C0000294CD0FF2E00D071E743463EE7FF2C01
:10107C00C5D0524662445308B6E763460D00D61AF3
:10108C00C0E66246002A16D15346002B00D02BE74F
:10109C0080270025FF20FF03D9E60D0043463400CE
:1010AC00A6E753466344F7E6634652469B1AA4E60A
:1010BC006246002AD9D05246002A00D116E7802277
:1010CC00D203134200D111E74046104200D00DE785
:1010DC000AE752460D003400D31A8EE65346002B15
:1010EC0008D00D004746B2E64346340080E7002B9B
:1010FC0000D079E700250027A9E64746A7E6534626
:10110C0034006344C8E6C046FFFFFF7DFFFFFFFBD2
:10111C0041024200C30F490A0020120E7E2A03D955
:10112C009D2A02D9094A981870478020000401436F
:10113C00952A07DC9620821AD1404842002BF3D125
:10114C000800F1E7963A9140F7E7C046FFFFFF7FB2
:10115C0070B5002813D0C317C5185D40C40F280004
:10116C0000F03CF89E2301001B1A962B0FDC08287C
:10117C0001DD08398D406D026D0AD8B202E0002401
:10118C0000200025C0052843E407204370BD992B9F
:10119C000BDD05222E00121AD64002001B329540A0
:1011AC002800451EA84135000543052901DD4A1FCD
:1011BC0095402A00084E3240680709D00F2028407D
:1011CC00042805D00432500102D59F2332405B1A0B
:1011DC009201550AD8B2D5E7FFFFFFFB1C21012372
:1011EC001B04984201D3000C10391B0A984201D3FE
:1011FC00000A08391B09984201D30009043902A2DC
:10120C00105C40187047C046040302020101010142
:10121C00000000000000000080B582B000AF7860D4
:10122C00034A7B681A607B681800BD4602B080BD1B
:10123C007859010880B582B000AF78607B681800DF
:10124C00FFF7EAFF7B680421180012F0E3F87B68D3
:10125C001800BD4602B080BD80B582B000AF78608A
:10126C00C046BD4602B080BD80B500AF024B1B68C6
:10127C001800BD4680BDC0460424002080B582B055
:10128C0000AF78600A4B1B78002B03D17B683422AB
:10129C009B5C08E07B6834229B5C002B01D1012312
:1012AC0000E00023C0461800BD4602B080BDC04619
:1012BC00FC23002080B582B000AF78607B680022F0
:1012CC001A71C046BD4602B080BDB0B584B000AF47
:1012DC00786039600F257C197B68180000F020F8C5
:1012EC00030023707B681B797A1912789A4201D11A
:1012FC00002310E07B680F217A1812781A710A000B
:10130C00BB181B78002B05D03B68BA1812781A70E2
:10131C00012300E000231800BD4604B0B0BD00005E
:10132C0090B585B000AF78600F243B1900221A707D
:10133C00FFF79AFF03001800FFF7A0FF0300013B23
:10134C005A425341DBB2002B62D0664B802118000D
:10135C0002F02AFA03005A425341DBB2002B03D0AD
:10136C003B1935221A70B6E05F4B0121180002F0D0
:10137C001BFA03005A425341DBB2002B04D00F235B
:10138C00FB1834221A70A6E0574B0221180002F009
:10139C000BFA03005A425341DBB2002B04D00F234B
:1013AC00FB1836221A7096E080235B014E4A190016
:1013BC00100002F0F9F903005A425341DBB2002B42
:1013CC0004D00F23FB1838221A7084E0464B1021EE
:1013DC00180002F0E9F903005A425341DBB2002B2A
:1013EC0004D00F23FB1832221A7074E080239B0167
:1013FC003C4A1900100002F0D7F903005A4253413D
:10140C00DBB2002B67D00F23FB1830221A7062E07E
:10141C00344B8021180002F0C7F903005A425341A3
:10142C00DBB2002B04D00F23FB1835221A7052E0CC
:10143C002D4B0121180002F0B7F903005A42534119
:10144C00DBB2002B04D00F23FB1838221A7042E0B9
:10145C00254B0221180002F0A7F903005A42534110
:10146C00DBB2002B04D00F23FB1832221A7032E0AF
:10147C0080235B011C4A1900100002F095F903004F
:10148C005A425341DBB2002B04D00F23FB183622F7
:10149C001A7020E0144B1021180002F085F903009B
:1014AC005A425341DBB2002B04D00F23FB183422D9
:1014BC001A7010E080239B010A4A1900100002F0F8
:1014CC0073F903005A425341DBB2002B03D00F23B4
:1014DC00FB1830221A700F23FB181B781800BD461E
:1014EC0005B090BD000800500004005080B582B0DB
:1014FC0000AF7860054A7B681A607B681800FFF7BC
:10150C008BFE7B681800BD4602B080BD5C5901089B
:10151C0080B582B000AF78607B681800FFF7E6FFFB
:10152C007B680821180011F075FF7B681800BD4618
:10153C0002B080BD80B588B000AFF860B9607A6049
:10154C00A023DB05802252009A62924B03221A7070
:10155C00FB681A0C904B1B680C33D2B21A70C04645
:10156C008D4B1B689B6802221340022BF8D1FB6841
:10157C001A0A894B1B680C33D2B21A70C046864BC0
:10158C001B689B6802221340022BF8D1824B1B680C
:10159C000C33FA68D2B21A707B68032B1FD07B68AD
:1015AC00032B0BD87B68022B2AD07B68022B05D827
:1015BC007B68002B46D07B68012B32D0C046764B23
:1015CC001B689B6802221340022BF8D1724B1B68DC
:1015DC000C331B78704B1B680C3300221A70C046FE
:1015EC006D4B1B689B6802221340022BF8D16A4B8F
:1015FC001B680C331B78684B1B680C3300221A7069
:10160C00C046654B1B689B6802221340022BF8D125
:10161C00614B1B680C331B785F4B1B680C3300222F
:10162C001A70C0465C4B1B689B6802221340022B4D
:10163C00F8D1594B1B680C331B78574B1B680C3378
:10164C0000221A70C0467B68032B11D07B68032BD9
:10165C0012D87B68012B03D07B68022B04D00BE0E3
:10166C004D4B1B680C331B784B4B1B680C331B7896
:10167C00494B1B680C331B78C0467B68043BBA682B
:10168C00D318BB6143E0C046444B9B680222134015
:10169C00022BF9D13F49BB685A1CBA600A78D2B206
:1016AC001A703C4B00221A70C0463C4B9B680222BD
:1016BC001340022BF9D13749BB685A1CBA600A781F
:1016CC00D2B21A70334B00221A70C046334B9B684F
:1016DC0002221340022BF9D12E49BB685A1CBA6066
:1016EC000A78D2B21A702B4B00221A70C0462B4BC0
:1016FC009B6802221340022BF9D12649BB685A1C65
:10170C00BA600A78D2B21A70224B00221A70BA69E7
:10171C00BB68D31A032BB6DC10E0C0461F4B9B688A
:10172C0002221340022BF9D11A49BB685A1CBA6029
:10173C000A78D2B21A70174B00221A70BA68BB69B9
:10174C009A42EAD3C046144B1B689B688022134014
:10175C00F9D1A023DB05802252009A617B68042B0F
:10176C0000D904237B610023FB6109E00949BB68B4
:10177C005A1CBA600A78D2B21A70FB690133FB6149
:10178C00FA697B699A42F1DBC046C046BD4608B097
:10179C0080BDC0460C380040342600200038004084
:1017AC0080B584B000AFF860B9607A607E4B0122DE
:1017BC001A70A023DB05802252009A627B4B1B68B7
:1017CC000C3303221A70C046784B1B689B680222AC
:1017DC001340022BF8D1FB681A0C744B1B680C33AA
:1017EC00D2B21A70C046714B1B689B680222134020
:1017FC00022BF8D1FB681A0A6C4B1B680C33D2B263
:10180C001A70C046694B1B689B6802221340022B5E
:10181C00F8D1664B1B680C33FA68D2B21A70C0460A
:10182C00624B1B689B6880221340F9D15F4B1B688D
:10183C000C331B785D4B1B680C331B785B4B1B68A4
:10184C000C331B78594B1B680C331B78574B1B689C
:10185C005A68564B1B6856490A405A60534B1B68D2
:10186C005A68524B1B68802149010A435A60514BFC
:10187C001B681A684F4B1B6801218A431A604D4B39
:10188C001B681A004C4B9A4209D94A4B5B6C1C22C0
:10189C001A404A4B012191400A005A6008E0454B1E
:1018AC005B6C1C221A40464B012191400A005A6085
:1018BC00404B1B687A685A603C4B1B680C331A000F
:1018CC003C4B1B689A603B4B1B68BA68DA60394B1F
:1018DC001B681A68374B1B680C218A431A60354BFE
:1018EC001B681A68334B1B6802210A431A60314B80
:1018FC001B681A682F4B1B6801210A431A602B4B7B
:10190C001B685A68294B1B6801210A435A602D4BEE
:10191C001B681A682B4B1B6801218A431A60294BE0
:10192C001B681A00244B9A4209D9264B5B6C1C226B
:10193C001A40224B012191400A005A6008E0214BC9
:10194C005B6C1C221A401E4B012191400A005A600C
:10195C001C4B1B687A685A60144B1B680C331A00BA
:10196C00184B1B689A60174B1B68BA68DA60154BEA
:10197C001B681A68134B1B6801210A431A600B4B36
:10198C001B681A68094B1B6840210A431A60074BF5
:10199C001B685A68054B1B6802210A435A60C046F3
:1019AC00BD4604B080BDC046B400002034260020E3
:1019BC00FF9FFFFFE426002080000240000402404D
:1019CC00000002401C28002080B500AF214B1A6893
:1019DC00214B5B6C1C210B40022199400B001340E6
:1019EC0035D01D4B1B681B68022213402FD01A4B9D
:1019FC001B681A68184B1B680A218A431A60164B1D
:101A0C001B681A00154B9A4209D9134B5B6C1C22AC
:101A1C001A40134B022191400A005A6008E00E4B09
:101A2C005B6C1C221A400B4B022191400A005A603D
:101A3C00C0460C4B1B689B6880221340F9D1A02335
:101A4C00DB05802252009A61074B00221A70C046B7
:101A5C00BD4680BD00000240E4260020800002400C
:101A6C000004024034260020B400002080B584B06D
:101A7C0000AFF860B9607A607A68B968FB681800E2
:101A8C00FFF758FDC046BD4604B080BD80B584B09C
:101A9C0000AFF860B9607A607A68B968FB681800C2
:101AAC00FFF77EFEC046BD4604B080BD80B500AFDA
:101ABC00C046044B1B78DBB2002BFAD1C046C046A3
:101ACC00BD4680BDB400002080B500AF054B1B683F
:101ADC001A68044B1B6840210A431A60C046BD4675
:101AEC0080BDC0463426002080B582B000AF020015
:101AFC00FB1D1A70A023DB05802292009A620F4B0B
:101B0C008022D2019A620E4B1B680C33FA1D12789C
:101B1C001A70C0460A4B1B689B6880221340F9D18F
:101B2C00064B8022D2019A61A023DB058022920011
:101B3C009A61C046BD4602B080BDC046000400504C
:101B4C009027002080B582B000AF39601100FB1DDA
:101B5C00021C1A70BB1D0A1C1A70A023DB05802204
:101B6C0092009A621F4B8022D2019A621E4B1B6814
:101B7C000C33FA1D12781A70C0461B4B1B689B68FD
:101B8C0080221340F9D1174B8022D2019A6115E0C3
:101B9C00154B1B680C333A6812781A703B6801338A
:101BAC003B60BB1D1A78BB1D013A1A70C0460E4B28
:101BBC001B689B6802221340022BF8D1BB1D1B78BB
:101BCC00002BE5D1C046084B1B689B688022134054
:101BDC00F9D1A023DB05802292009A61C046BD4654
:101BEC0002B080BD000400509027002080B500AFEB
:101BFC002920FFF779FF642001F0FCF8C046BD46B0
:101C0C0080BD0000B0B584B000AF05000C00100022
:101C1C001900BB1D2A1C1A803B1D221C1A80BB1CE0
:101C2C00021C1A803B000A1C1A80354B1B88BA1DFB
:101C3C0012889A4205D1334B1B88BA1C12889A42DF
:101C4C0026D0BB1D1B881B0A9BB2DAB20C217B1859
:101C5C001A70BB1D1B88DAB27B185A70BB1C1B8810
:101C6C001B0A9BB2DAB27B189A70BB1C1B88DAB2C7
:101C7C007B18DA707B18042219002A20FFF762FF08
:101C8C001F4BBA1D12881A801E4BBA1C12881A8060
:101C9C001D4B1B883A1D12889A4205D11B4B1B8881
:101CAC003A0012889A4226D03B1D1B881B0A9BB215
:101CBC00DAB20C217B181A703B1D1B88DAB27B1828
:101CCC005A703B001B881B0A9BB2DAB27B189A70C5
:101CDC003B001B88DAB27B18DA707B1804221900DF
:101CEC002B20FFF72FFF084B3A1D12881A80074B49
:101CFC003A0012881A80C046BD4604B0B0BDC0463A
:101D0C0010000020120000201400002016000020FB
:101D1C00F0B587B000AFF8600C00100019000A2570
:101D2C007B19221C1A800826BB19021C1A80BB1DA9
:101D3C000A1C1A805F4B01221A705F4B1B681A68D1
:101D4C005D4B1B6840210A431A601723FB182C2299
:101D5C001A7028003A18BB1D12881B88D3189BB226
:101D6C00013B9CB2BA1928210823FB185B18128876
:101D7C001B88D3189BB2013B9AB2BB1919883B182C
:101D8C00188813002200FFF73DFFA023DB058022FB
:101D9C0092009A62494B8022D2019A62464B1B6890
:101DAC000C331722BA1812781A70C046424B1B68B3
:101DBC009B6880221340F9D1404B8022D2019A615A
:101DCC003D4B1B68F02212015A603B4B1B681A6892
:101DDC00394B1B6840218A431A60394B1B681A68BF
:101DEC00374B1B6801218A431A60334B1B685A68B6
:101DFC00314B1B6833490A405A60314B1B681A003F
:101E0C00314B9A4209D92E4B5B6C1C221A402F4B3A
:101E1C00012191400A005A6008E0294B5B6C1C229E
:101E2C001A402B4B012191400A005A60BB1D1A88A5
:101E3C00282308218C46BC4463441B885A43204BFE
:101E4C001B685A601C4B1B680C331A001C4B1B681C
:101E5C009A601B4B1B68FA68DA60194B1B681A688E
:101E6C00174B1B6804218A431A60154B1B681A68B0
:101E7C00134B1B680A210A431A60114B1B681A6822
:101E8C000F4B1B6801210A431A600B4B1B681A6825
:101E9C00094B1B6840210A431A60074B1B685A68A0
:101EAC00054B1B6802210A435A60C046BD4607B069
:101EBC00F0BDC046302600209027002000040050C2
:101ECC007C280020FFBFFFFF80000240000402407E
:101EDC000000024080B582B000AF0200BB1D1A802A
:101EEC000C4B1B889BB201339AB20A4B1A800A4BDB
:101EFC001B681A68084B1B6801218A431A60064B41
:101F0C001B6800225A6208F0F0FEC046BD4602B0C3
:101F1C0080BDC046B60000204427002080B582B0AA
:101F2C0000AF0200BB1D1A80034B1B6801221A6014
:101F3C00C046BD4602B080BD4427002090B587B096
:101F4C0000AF0200FB1D1A70524B1B681A68514BF4
:101F5C001B6840210A431A601020FFF7C5FD0A20B8
:101F6C0000F048FF0120FFF7BFFDC82000F042FF42
:101F7C001120FFF7B9FD782000F03CFFFB1D1B780A
:101F8C00002B06D1444B1B68DAB20823FB181A70DD
:101F9C0005E0414B9B68DAB20823FB181A70082441
:101FAC003B19012219003620FFF7CCFD21007B18CC
:101FBC0000221A707B1800225A707B1800229A702B
:101FCC007B18EF22DA700C007B18042219002A20EF
:101FDC00FFF7B8FD21007B1800221A707B18002235
:101FEC005A707B1801229A707B183F22DA700C0011
:101FFC007B18042219002B20FFF7A4FD2C20FFF7DF
:10200C0073FD21007B1855221A700C007B180122DD
:10201C0019003A20FFF796FD21007B180A221A704E
:10202C000C007B1801221900C620FFF78BFD210044
:10203C007B1801221A707B1801225A707B1800221F
:10204C009A707B180122DA707B1801221A710C002D
:10205C007B1805221900B220FFF774FD21007B18B4
:10206C0000221A707B1800225A700C007B18022276
:10207C0019004420FFF766FD21007B1800221A701E
:10208C007B18012219003520FFF75CFDC046BD46C8
:10209C0007B090BD902700200000002080B500AF55
:1020AC00A023DB0500220221180001F09AFB64201A
:1020BC0000F0A0FEA023DB0501220221180001F094
:1020CC0090FB642000F096FEC046BD4680BD80B5F6
:1020DC0000AF00220021092000F072FF092000F05F
:1020EC0084FFC046BD4680BD80B500AF024B1B7857
:1020FC00DBB21800BD4680BD30260020F0B587B09D
:10210C0002AFF8600C00100019000A257B19221C84
:10211C001A800826BB19021C1A80BB1D0A1C1A80C7
:10212C00BB1D1C88BB191A887B191988F8682023D9
:10213C000825AC46BC4463441B8800932300FFF77E
:10214C00E7FDC046BD4605B0F0BD000080B500AF50
:10215C00304B1B680222134031D02F4B1B681B687D
:10216C00022213402BD02C4B1B681A682A4B1B687D
:10217C000A218A431A60284B1B681A00274B9A4283
:10218C0003D9274B02225A6002E0224B02225A60EA
:10219C00244B00221A70C046234B1B689B6880227C
:1021AC001340F9D1A023DB05802292009A611E4BCB
:1021BC001B68E022D2005A6008F090FD26E0154B17
:1021CC001B680222134021D0134B1B681B6808228A
:1021DC0013401BD0104B1B681A680F4B1B680E2149
:1021EC008A431A600C4B1B681A000C4B9A4203D999
:1021FC000B4B01225A6002E0064B01225A600B4B3A
:10220C000B4AA42149000B4811F034F9C046BD46D5
:10221C0080BDC046000002407C28002080000240A7
:10222C000004024030260020902700200C460108B4
:10223C008C5901081046010880B582B000AF02002D
:10224C00BB1D1A80BB1D1A880A4B1B889BB2002B26
:10225C0004D1094B1B685B6A9BB200E0074B012160
:10226C00934201DC0023191CCBB21800BD4602B00E
:10227C0080BDC046B600002044270020FFFF0000B0
:10228C0080B500AF00F030FD00F011F800F070F9EF
:10229C0000F048F900F06AF800F08CF800F0C8F88B
:1022AC0000F004F902F022FD02F027FDFCE790B5E6
:1022BC0095B000AF14243B1918003C231A000021E0
:1022CC0011F055F93B1D180010231A00002111F0D4
:1022DC004EF980239B00180001F0CAFA3B19022228
:1022EC001A603B1980225200DA6021007B18002210
:1022FC001A617B1840225A617B1802221A627B18E1
:10230C0002225A627B1800229A627B180822DA6237
:10231C007B18802292021A637B18802292045A63E3
:10232C007B18802292059A637B18180001F0E0FA62
:10233C00031E01D000F0F2F93B1D07221A603B1D71
:10234C0002225A603B1D00229A603B1D0022DA607B
:10235C003B1D0221180001F031FE031E01D000F0DC
:10236C00DDF9C046BD4615B090BD000080B500AF8C
:10237C000E4B0F4A1A600D4B00221A710B4B0022A8
:10238C005A710A4B00225A61084B00229A61074B82
:10239C0001221A62054B180000F044FE031E01D006
:1023AC0000F0BCF9C046BD4680BDC046C02600202A
:1023BC000030024080B500AF1B4B1C4A1A601A4B10
:1023CC00822252005A60184B00229A60164BE0226F
:1023DC00D200DA60144B00221A61134B00225A61AE
:1023EC00114B802292009A610F4B0822DA610E4B3E
:1023FC0000221A620C4B00225A620B4B00229A628A
:10240C00094B0722DA62084B00221A63064B0022A2
:10241C005A63054B180001F05BFF031E01D000F05E
:10242C007DF9C046BD4680BD90270020003001409C
:10243C0080B500AF1B4B1C4A1A601A4B822252000B
:10244C005A60184B00229A60164BE022D200DA60D8
:10245C00144B00221A61134B00225A61114B80223B
:10246C0092009A610F4B0022DA610E4B00221A6225
:10247C000C4B00225A620B4B00229A62094B07222A
:10248C00DA62084B00221A63064B00225A63054B92
:10249C00180001F01DFF031E01D000F03FF9C046EB
:1024AC00BD4680BD342600200038004080B584B085
:1024BC0000AF3B1D18000C231A00002111F057F837
:1024CC00154B164A1A60144B1F225A60124B0022ED
:1024DC009A60114B124ADA600F4B00229A610E4B34
:1024EC00180002F038F9031E01D000F017F93B1D5B
:1024FC0010221A603B1D00229A603A1D064B1100F7
:10250C00180002F065FB031E01D000F007F9C0466D
:10251C00BD4604B080BDC0464427002000100040DA
:10252C0060EA000080B582B000AF104B9A6B0F4B85
:10253C0001210A439A630D4B9B6B012213407B6074
:10254C007B6800220021092000F03AFD092000F0F0
:10255C004CFD002200210A2000F032FD0A2000F080
:10256C0044FDC046BD4602B080BDC04600100240CE
:10257C0090B58BB000AF14243B19180014231A002B
:10258C00002110F0F4FF5F4B5A6B5E4B04210A43A1
:10259C005A635C4B5B6B042213403B613B69594BA8
:1025AC005A6B584B20210A435A63564B5B6B2022C3
:1025BC001340FB60FB68534B5A6B524B01210A438F
:1025CC005A63504B5B6B01221340BB60BB684D4B95
:1025DC005A6B4C4B02210A435A634A4B5B6B0222E7
:1025EC0013407B607B684849A023DB05012218005F
:1025FC0001F0F7F88023DB0144480122190001F0B7
:10260C00F0F83B19822292011A603B1900225A60A1
:10261C003B1900229A603B193D4A1900100000F04A
:10262C0057FF3B1901221A603B19C42292035A60CE
:10263C003B1900229A603A19A023DB0511001800FF
:10264C0000F046FF3B1902221A603B1901225A6026
:10265C003B1901229A603B190222DA603A19A02335
:10266C00DB051100180000F033FF3B19294A1A60F2
:10267C003B1900225A603B1900229A603B19234AED
:10268C001900100000F024FF21007B188022D201D9
:10269C001A600C003B1901225A603B1900229A6007
:1026AC003B190222DA603B19184A1900100000F09D
:1026BC000FFF21007B18C02292001A607B180122A8
:1026CC005A607B1800229A607B180222DA607A1812
:1026DC00A023DB051100180000F0FAFE0E4B1A685F
:1026EC000D4B8021C9030A431A60002200210520EA
:1026FC0000F066FC052000F078FCC046BD460BB02F
:10270C0090BDC046001002400203000000040050BF
:10271C0000080050131000000000014080B500AF0D
:10272C0072B6C046FEE7000080B582B000AF114B18
:10273C001A6C104B01210A431A640E4B1B6C0122BC
:10274C0013407B607B680B4BDA6B0A4B802149058D
:10275C000A43DA63074BDA6B80235B0513403B605B
:10276C003B68C023DB00180000F068FBC046BD4688
:10277C0002B080BD0010024080B584B000AF78601C
:10278C007B681B680A4A93420DD10A4B9A6B094B22
:10279C00802149010A439A63064B9A6B80235B01A3
:1027AC001340FB60FB68C046BD4604B080BDC0460C
:1027BC00003002400010024090B58DB000AF786040
:1027CC001C243B19180014231A00002110F0CFFE12
:1027DC007B681B688C4A93425DD18C4B1A6C8B4B7B
:1027EC00802149010A431A64884B1A6C80235B01CF
:1027FC001340BB61BB69854B5A6B844B01210A4367
:10280C005A63824B5B6B012213407B617B69210015
:10281C007B18A0221A607B1802225A607B180222B5
:10282C009A607B180322DA607B1800221A617A18EE
:10283C00A023DB051100180000F04AFE744B754A0A
:10284C001A60734B11225A60714B10229A60704BB4
:10285C000022DA606E4B80221A616D4B802252008E
:10286C005A616B4B8022D2009A61694B0022DA616B
:10287C00674B802292011A62654B180000F0A6FC8F
:10288C00031E01D0FFF74AFF7B68614A5A65604B13
:10289C007A689A62B3E07B681B685F4A934200D007
:1028AC00ADE05A4BDA6B594B8021C9010A43DA630C
:1028BC00564BDA6B8023DB0113403B613B69534B76
:1028CC005A6B524B04210A435A63504B5B6B0422E4
:1028DC001340FB60FB684D4B5A6B4C4B02210A4377
:1028EC005A634A4B5B6B02221340BB60BB681C24CF
:1028FC003B190C221A603B1902225A603B19022226
:10290C009A603B190322DA603B1901221A613B19C8
:10291C00424A1900100000F0DBFD21007B188022D8
:10292C0092011A607B1802225A607B1802229A606C
:10293C007B180322DA607B1800221A617B18384A54
:10294C001900100000F0C4FD364B374A1A60354BA5
:10295C0013225A60334B10229A60324B0022DA60F9
:10296C00304B80221A612F4B00225A612D4B0022D2
:10297C009A612C4B0022DA612A4B00221A62294BF5
:10298C00180000F023FC031E01D0FFF7C7FE7B6884
:10299C00244A5A65234B7A689A62244B244A1A605B
:1029AC00224B12225A60214B00229A601F4B0022AC
:1029BC00DA601E4B80221A611C4B00225A611B4BA1
:1029CC0000229A61194B0022DA61184B80225201C5
:1029DC001A62164B180000F0F9FB031E01D0FFF72A
:1029EC009DFE7B68114A9A65104B7A689A620022A8
:1029FC0000211A2000F0E4FA1A2000F0F6FAC04682
:102A0C00BD460DB090BDC0460030014000100240E4
:102A1C007C280020080002400038004000080050CC
:102A2C00000400501C28002030000240E426002046
:102A3C001C00024080B584B000AF78607B681B68D6
:102A4C000D4A934213D10D4BDA6B0C4B10210A43F8
:102A5C00DA630A4BDB6B10221340FB60FB6800222D
:102A6C000021112000F0ACFA112000F0BEFAC04693
:102A7C00BD4604B080BDC0460010004000100240AE
:102A8C0080B500AFFEE780B500AFFEE780B500AFC4
:102A9C00C046BD4680BD80B500AFC046BD4680BDBA
:102AAC0080B500AF00F08AF9C046BD4680BD80B548
:102ABC0000AF012000F0B2FEC046BD4680BD80B51F
:102ACC0000AFFFF743FBC046BD4680BD80B500AFED
:102ADC00FEF77AFFC046BD4680BD000080B500AF52
:102AEC00034B180001F090FEC046BD4680BDC046A9
:102AFC004427002080B500AF034B180001F0D6FC32
:102B0C00C046BD4680BDC0463426002080B500AF0F
:102B1C0001231800BD4680BD80B582B000AF78603F
:102B2C00396010F0CDFC030016221A6001235B42C1
:102B3C001800BD4602B080BD80B582B000AF786091
:102B4C0001235A427B6811001800FFF7E5FFFEE7EE
:102B5C0080B586B000AFF860B9607A6000237B6105
:102B6C000AE000E000BF0100BB685A1CBA60CAB2A0
:102B7C001A707B6901337B617A697B689A42F0DB5E
:102B8C007B681800BD4606B080BD80B586B000AF2E
:102B9C00F860B9607A6000237B6109E0BB685A1C5D
:102BAC00BA601B78180000E000BF7B6901337B61C1
:102BBC007A697B689A42F1DB7B681800BD4606B0E7
:102BCC0080BD80B582B000AF786001235B421800F5
:102BDC00BD4602B080BD80B582B000AF7860396070
:102BEC003B68802292015A6000231800BD4602B057
:102BFC0080BD80B582B000AF786001231800BD465F
:102C0C0002B080BD80B584B000AFF860B9607A6066
:102C1C0000231800BD4604B080BD000080B586B00E
:102C2C0000AF7860144A154BD31A7B617B693B610A
:102C3C00134B1B68002B02D1114B124A1A60104B1C
:102C4C001A687B68D3183A699A4207D210F038FC9C
:102C5C0003000C221A6001235B4209E0084B1B683D
:102C6C00FB60074B1A687B68D218054B1A60FB682F
:102C7C001800BD4606B080BD0040022000080000D0
:102C8C00B8000020F028002080B500AFC046BD463B
:102C9C0080BD00000D488546FFF7F6FF0C480D4936
:102CAC000D4A002302E0D458C4500433C4188C429B
:102CBC00F9D30A4A0A4C002301E013600432A24201
:102CCC00FBD310F013FCFFF7DBFAFEE70040022009
:102CDC0000000020980000206C880108980000205B
:102CEC00F0280020FEE7000080B582B000AFFB1D8D
:102CFC0000221A700B4B1A680A4B802149000A43B8
:102D0C001A60002000F010F8031E03D0FB1D0122F6
:102D1C001A7001E0FFF708FDFB1D1B781800BD467B
:102D2C0002B080BD0020024090B585B000AF786045
:102D3C000F23FB1800221A701D4B1B78002B2BD075
:102D4C001C4B1C681A4B1B781900FA239800FDF7D2
:102D5C00E7F9030019002000FDF7E2F90300180061
:102D6C0000F053F9031E12D17B68032B0AD8796843
:102D7C0001235B420022180000F022F90E4B7A6806
:102D8C001A600DE00F23FB1801221A7008E00F23C4
:102D9C00FB1801221A7003E00F23FB1801221A7092
:102DAC000F23FB181B781800BD4605B090BDC0461C
:102DBC0020000020180000201C00002080B500AF6F
:102DCC00054B1B781A00054B1B68D218034B1A6075
:102DDC00C046BD4680BDC04620000020DC28002037
:102DEC0080B500AF024B1B681800BD4680BDC046C5
:102DFC00DC28002080B584B000AF7860FFF7F0FFCE
:102E0C000300BB607B68FB60FB68013305D00A4B99
:102E1C001B781A00FB689B18FB60C046FFF7E0FFAD
:102E2C000200BB68D31AFA689A42F7D8C046C0466B
:102E3C00BD4604B080BDC0462000002080B582B0E5
:102E4C0000AF7860064B1B68064A13401900044B10
:102E5C007A680A431A60C046BD4602B080BDC046BF
:102E6C0000000140FFF9FFFF80B582B000AF020007
:102E7C00FB1D1A70FB1D1B787F2B09D8FB1D1B78C3
:102E8C001A001F231A40044B012191400A001A60BA
:102E9C00C046BD4602B080BD00E100E090B583B0F5
:102EAC0000AF02003960FB1D1A70FB1D1B787F2BD5
:102EBC0028D82F4AFB1D1B785BB29B08C0339B00A4
:102ECC009B58FA1D1278110003220A40D200FF21F0
:102EDC0091400A00D2431A4011003B689B01FF222B
:102EEC001A40FB1D1B78180003230340DB009A409B
:102EFC001F48FB1D1B785BB29B080A43C0339B0029
:102F0C001A5031E01B4AFB1D1B7819000F230B4094
:102F1C00083B9B0806339B00D31804331B68FA1D2F
:102F2C001278110003220A40D200FF2191400A00BE
:102F3C00D2431A4011003B689B01FF221A40FB1D33
:102F4C001B78180003230340DB009A400948FB1D43
:102F5C001B781C000F232340083B9B080A430633B5
:102F6C009B00C31804331A60C046BD4603B090BD25
:102F7C0000E100E000ED00E080B582B000AF7860C9
:102F8C007B685A1E80235B049A4201D3012310E014
:102F9C000A4B7A68013A5A6001235B4203211800FC
:102FAC00FFF77CFF054B00229A60044B07221A6046
:102FBC0000231800BD4602B080BDC04610E000E002
:102FCC0080B584B000AFB9607A600F217B18021C09
:102FDC001A70BA687B181B785BB211001800FFF7E7
:102FEC005DFFC046BD4604B080BD80B582B000AF69
:102FFC000200FB1D1A70FB1D1B785BB21800FFF75B
:10300C0033FFC046BD4602B080BD80B582B000AF74
:10301C0078607B681800FFF7AFFF03001800BD460F
:10302C0002B080BD80B582B000AF78607B68002BA9
:10303C0001D1012356E07B685B7FDBB2002B06D10C
:10304C007B6800221A777B681800FFF795FB7B687A
:10305C0002225A777B681B79002B0CD17B681B688A
:10306C00224A5A617B681B689A687B681B68182126
:10307C008A439A600BE07B6899687B68DA687B68A6
:10308C00180000F035F8031E01D001232AE07B68FC
:10309C005B79002B05D17B681B68012252421A61B7
:1030AC0004E07B681B687A6812691A617B681B688C
:1030BC009B686022934319007B685A697B681B6884
:1030CC000A439A607B681B689B68802293431900B3
:1030DC007B689A697B681B680A439A607B6801224B
:1030EC005A7700231800BD4602B080BDB71DC1043D
:1030FC0080B586B000AFF860B9607A601723FB1812
:10310C0000221A701F233B61C0463B695A1E3A616C
:10311C00002B08D03B691F221340BA68DA40130019
:10312C0001221340F1D07B68182B0FD07B68182B31
:10313C0024D87B68102B11D07B68102B1ED87B6891
:10314C00002B20D07B68082B10D017E03B69062B96
:10315C001BD91723FB1801221A7016E03B69072BA9
:10316C0015D91723FB1801221A7010E03B690F2B9D
:10317C000FD91723FB1801221A700AE01723FB182A
:10318C0001221A7006E0C04604E0C04602E0C046C8
:10319C0000E0C0461723FB181B78002B0ED1FB68F0
:1031AC001B68BA685A61FB681B689B6818229343BA
:1031BC001900FB681B687A680A439A601723FB188E
:1031CC001B781800BD4606B080BD000080B582B0EB
:1031DC0000AF78607B68002B01D1012391E07B6804
:1031EC001B681A00494B9A4210D87B681B68484AE6
:1031FC009446634414211800FCF792FF03009A00D4
:10320C007B685A647B68434A1A640FE07B681B68CE
:10321C00414A9446634414211800FCF781FF0300D3
:10322C009A007B685A647B683C4A1A647B68252246
:10323C00022199547B681B681A687B681B683849A3
:10324C000A401A607B681B6819687B689A687B68FF
:10325C00DB681A437B681B691A437B685B691A43FA
:10326C007B689B691A437B68DB691A437B681B6A22
:10327C001A437B681B680A431A607B68180000F0CD
:10328C00B9F87B689A688023DB019A4202D17B688B
:10329C0000225A607B685A687B689B6C7F210A40CD
:1032AC001A607B68DB6C7A68126D5A607B685B68AD
:1032BC00002B11D07B685B68042B0DD87B68180041
:1032CC0000F0E2F87B685B6D00221A607B689B6DF6
:1032DC007A68D26D5A6008E07B6800225A657B6878
:1032EC0000229A657B680022DA657B680022DA632B
:1032FC007B682522012199547B6824220021995452
:10330C0000231800BD4602B080BDC0460704024031
:10331C00F8FFFDBF00000240F8FBFDBF00040240B7
:10332C000F80FFFF80B584B000AF78600F217B1851
:10333C0000221A707B6825229B5CDBB2022B06D024
:10334C007B680422DA637B1801221A7048E07B68E0
:10335C001B681A687B681B680E218A431A607B689D
:10336C001B681A687B681B6801218A431A607B689A
:10337C009B6C1A687B689B6C1D490A401A607B68C1
:10338C005B6C1C221A407B681B6C012191400A006B
:10339C005A607B68DB6C7A68126D5A607B685B6D77
:1033AC00002B0CD07B685B6D1A687B685B6D1049D9
:1033BC000A401A607B689B6D7A68D26D5A607B6894
:1033CC002522012199547B682422002199547B6881
:1033DC009B6B002B04D07B689B6B7A681000984722
:1033EC000F23FB181B781800BD4604B080BDC046E7
:1033FC00FFFEFFFF80B584B000AF78607B681B6870
:10340C001A001D4B9A4214D87B685B6C9B089B007E
:10341C001A4A9A187B689A647B681B681A00FF2307
:10342C001340083B14211800FCF77AFE0300FB60E4
:10343C0014E07B685B6C9B089B00114A9A187B68B4
:10344C009A647B681B681A00FF231340083B142105
:10345C001800FCF765FE03000733FB607B68094A24
:10346C00DA64FB681F22134001229A407B681A65BC
:10347C00C046BD4604B080BD0704024000080240AF
:10348C001C0802408008024080B584B000AF786010
:10349C007B685B687F221340FB60FB680A4A94469A
:1034AC0063449B001A007B685A657B68074A9A65DF
:1034BC00FB68013B0322134001229A407B68DA65CA
:1034CC00C046BD4604B080BD3F820010400902409A
:1034DC0080B586B000AF7860396000237B614DE128
:1034EC003B681B6801217A6991400A001340FB601C
:1034FC00FB68002B00D13EE13B685B680322134064
:10350C00012B05D03B685B6803221340022B30D1A2
:10351C007B689B683B617B695B0003229A401300CC
:10352C00DA433B6913403B613B68DA687B695B00BB
:10353C009A4013003A6913433B617B683A699A607D
:10354C007B685B683B6101227B699A401300DA431C
:10355C003B6913403B613B685B681B0901221A40C5
:10356C007B699A4013003A6913433B617B683A6963
:10357C005A603B685B6803221340032B17D07B68AF
:10358C00DB683B617B695B0003229A401300DA43E2
:10359C003B6913403B613B689A687B695B009A40CE
:1035AC0013003A6913433B617B683A69DA603B6804
:1035BC005B6803221340022B23D17B69DA087B68FA
:1035CC0008329200D3583B617B69072213409B0061
:1035DC000F229A401300DA433B6913403B613B686E
:1035EC001A697B6907210B409B009A4013003A69CA
:1035FC0013433B617B69DA087B68083292003969B6
:10360C00D1507B681B683B617B695B0003229A404D
:10361C001300DA433B6913403B613B685B68032250
:10362C001A407B695B009A4013003A6913433B6173
:10363C007B683A691A603B685A68C0239B02134046
:10364C0000D198E0534A7B699B0818339B009B5828
:10365C003B617B6903221340DB000F229A4013006D
:10366C00DA433B6913403B617A68A023DB059A423D
:10367C0019D07B68484A934213D07B68474A9342DF
:10368C000DD07B68464A934207D07B68454A9342EB
:10369C0001D1042308E0052306E0032304E0022300
:1036AC0002E0012300E000237A6903210A40D200E2
:1036BC0093403A6913433B6136497B699B08183345
:1036CC009B003A695A50334A8023D3583B61FB68BC
:1036DC00DA433B6913403B613B685A6880235B02C9
:1036EC00134003D03A69FB6813433B61294980229C
:1036FC003B698B50274A8423D3583B61FB68DA43E0
:10370C003B6913403B613B685A6880239B02134022
:10371C0003D03A69FB6813433B611E4984223B6921
:10372C008B501C4B1B683B61FB68DA433B691340B5
:10373C003B613B685A6880235B03134003D03A69B2
:10374C00FB6813433B61134B3A691A60114B5B687E
:10375C003B61FB68DA433B6913403B613B685A6849
:10376C0080239B03134003D03A69FB6813433B61EE
:10377C00084B3A695A607B6901337B613B681A6874
:10378C007B69DA40131E00D0AAE6C046C046BD468F
:10379C0006B080BD00180240000400500008005024
:1037AC00000C00500010005080B584B000AF786061
:1037BC000A00BB1C1A807B681B69BA1C1288134058
:1037CC0004D00F23FB1801221A7003E00F23FB18FF
:1037DC0000221A700F23FB181B781800BD4604B08A
:1037EC0080BD80B582B000AF786008001100BB1CB2
:1037FC00021C1A807B1C0A1C1A707B1C1B78002B69
:10380C0004D0BB1C1A887B689A6103E0BB1C1A8825
:10381C007B689A62C046BD4602B080BD80B582B05E
:10382C0000AF0200BB1D1A80104BDB68BA1D12885A
:10383C00134008D00D4BBA1D1288DA60BB1D1B88D3
:10384C001800FEF747FB094B1B69BA1D1288134081
:10385C0008D0064BBA1D12881A61BB1D1B881800B4
:10386C00FEF75CFBC046BD4602B080BD00180240AE
:10387C0080B584B000AF7860194B1B68194A1340AF
:10388C001900174B7A680A431A607A6880239B00E8
:10389C009A421FD1144B1A6813005B009B185B00F3
:1038AC0012491800FCF73CFC03000133FB6008E0F4
:1038BC00FB68002B03D0FB68013BFB6001E003239A
:1038CC0009E0074B5A698023DB001A408023DB0098
:1038DC009A42EDD000231800BD4604B080BDC0460E
:1038EC0000700040FFF9FFFF1800002040420F005D
:1038FC0080B588B000AF78607B68002B02D10123C3
:10390C0000F056FB7B681B680122134000D17DE060
:10391C00C34B9B6838221340BB61C14BDB6803224D
:10392C0013407B61BB69102B02D17B69032B02D046
:10393C00BB69082B0CD1BA4B1A6880239B0213402D
:10394C0063D07B685B68002B5FD1012300F030FBF8
:10395C007B685A6880235B029A4207D1B04B1A6885
:10396C00AF4B802149020A431A6020E07B685A68F9
:10397C00A023DB029A420ED1A94B1A68A84B8021D6
:10398C00C9020A431A60A64B1A68A54B802149024A
:10399C000A431A600BE0A24B1A68A14BA1490A40DA
:1039AC001A609F4B1A689E4B9F490A401A607B68AD
:1039BC005B68002B14D0FFF713FA03003B6108E09F
:1039CC00FFF70EFA02003B69D31A642B01D90323CB
:1039DC00EEE2934B1A6880239B021340F0D015E063
:1039EC00FFF7FEF903003B6108E0FFF7F9F902006D
:1039FC003B69D31A642B01D90323D9E2884B1A688B
:103A0C0080239B021340F0D100E0C0467B681B680A
:103A1C000222134000D199E0814B9B68382213405D
:103A2C00BB617F4BDB68032213407B61BB69102BAE
:103A3C0002D17B69022B02D0BB69002B35D1784BAC
:103A4C001A688023DB00134005D07B68DB68002BF1
:103A5C0001D10123ACE2724B5B68744A134019002C
:103A6C007B685B691A026E4B0A435A60BB69002B78
:103A7C0012D16B4B1B686E4A134019007B681A6994
:103A8C00674B0A431A60664B1B68DB0A072213401C
:103A9C00684ADA40684B1A60684B1B681800FFF7DD
:103AAC0043F9031E51D0012382E27B68DB68002BB3
:103ABC0030D05B4B1B685E4A134019007B681A6957
:103ACC00574B0A431A60564B1A68554B80214900D4
:103ADC000A431A60FFF784F903003B6108E0FFF723
:103AEC007FF902003B69D31A022B01D903235FE251
:103AFC004B4B1A688023DB001340F0D0484B5B68BB
:103B0C004A4A134019007B685B691A02444B0A430A
:103B1C005A601BE0424B1A68414B49490A401A60F3
:103B2C00FFF75EF903003B6108E0FFF759F902006B
:103B3C003B69D31A022B01D9032339E2384B1A689B
:103B4C008023DB001340F0D100E0C0467B681B688B
:103B5C000822134047D0324B9B6838221340182B55
:103B6C000AD12F4B1B6E022213403CD07B689B6901
:103B7C00002B38D101231BE27B689B69002B19D0E9
:103B8C00274B1A6E264B01210A431A66FFF728F9B8
:103B9C0003003B6108E0FFF723F902003B69D31AED
:103BAC00022B01D9032303E21D4B1B6E022213408F
:103BBC00F1D018E01A4B1A6E194B01218A431A6680
:103BCC00FFF70EF903003B6108E0FFF709F902006B
:103BDC003B69D31A022B01D90323E9E1104B1B6E6D
:103BEC0002221340F1D17B681B680422134000D1E0
:103BFC00C6E01F23FB1800221A70094B9B68382261
:103C0C001340202B1ED1064BDB6D0222134000D13A
:103C1C00B6E07B689B68002B00D0B1E00123C7E1C4
:103C2C0000100240FFFFFEFFFFFFFBFFFF80FFFFC6
:103C3C00FFC7FFFF0024F400180000201C00002028
:103C4C00FFFEFFFFB84BDA6B80235B05134001D1FD
:103C5C00012300E00023002B11D0B34BDA6BB24BE5
:103C6C00802149050A43DA63AF4BDA6B80235B058D
:103C7C001340FB60FB681F23FB1801221A70AB4B2F
:103C8C001A6880235B0013401AD1A84B1A68A74B03
:103C9C00802149000A431A60FFF7A2F803003B6138
:103CAC0008E0FFF79DF802003B69D31A022B01D9FB
:103CBC0003237DE19D4B1A6880235B001340F0D0F9
:103CCC007B689B68012B06D1974BDA6D964B0121D3
:103CDC000A43DA651CE07B689B68052B0CD1924B80
:103CEC00DA6D914B04210A43DA658F4BDA6D8E4BFA
:103CFC0001210A43DA650BE08B4BDA6D8A4B01210B
:103D0C008A43DA65884BDA6D874B04218A43DA657E
:103D1C007B689B68002B14D0FFF762F803003B61B3
:103D2C0009E0FFF75DF802003B69D31A804A934221
:103D3C0001D903233CE17C4BDB6D02221340F0D014
:103D4C0013E0FFF74DF803003B6109E0FFF748F87B
:103D5C0002003B69D31A764A934201D9032327E127
:103D6C00714BDB6D02221340F0D11F23FB181B7823
:103D7C00012B05D16C4BDA6B6B4B6E490A40DA6345
:103D8C007B681B682022134039D07B68DB69002BD1
:103D9C001BD0654B1A68644B8021C9030A431A6017
:103DAC00FFF71EF803003B6108E0FFF719F802006B
:103DBC003B69D31A022B01D90323F9E05A4B1A6839
:103DCC0080231B041340F0D019E0574B1A68564B54
:103DDC0059490A401A60FFF703F803003B6108E0F9
:103DEC00FEF7FEFF02003B69D31A022B01D9032315
:103DFC00DEE04D4B1A6880231B041340F0D17B6826
:103E0C001B6A002B00D1D2E0474B9B683822134031
:103E1C00102B00D181E07B681B6A022B56D1424BE0
:103E2C001A68414B45490A401A60FEF7D9FF030056
:103E3C003B6108E0FEF7D4FF02003B69D31A022B6A
:103E4C0001D90323B4E0384B1A6880239B04134038
:103E5C00F0D1354BDB683A4A134019007B685A6A3B
:103E6C007B689B6A1A437B68DB6A1B021A437B687C
:103E7C001B6B1A437B685B6B1A437B689B6B1A4307
:103E8C00294B0A43DA60284B1A68274B80214904D6
:103E9C000A431A60244BDA68234B802149050A43F4
:103EAC00DA60FEF79DFF03003B6108E0FEF798FF28
:103EBC0002003B69D31A022B01D9032378E01A4B79
:103ECC001A6880239B041340F0D070E0164B1A68DC
:103EDC00154B1A490A401A60134BDA68124B03212E
:103EEC008A43DA60104BDA680F4B16490A40DA60E5
:103EFC00FEF776FF03003B6108E0FEF771FF02005E
:103F0C003B69D31A022B01D9032351E0064B1A68E3
:103F1C0080239B041340F0D149E07B681B6A012B82
:103F2C0012D1012344E0C046001002400070004052
:103F3C0088130000FFFFFFEFFFFFBFFFFFFFFFFE37
:103F4C008C80C111FFFFFEEE1B4BDB687B617B6934
:103F5C0003221A407B685B6A9A4226D17B697022E5
:103F6C001A407B689B6A9A421FD17A69FE23DB0157
:103F7C001A407B68DB6A1B029A4216D17A69F823D5
:103F8C009B031A407B681B6B9A420ED17A69E02323
:103F9C001B051A407B685B6B9A4206D17B695B0FF1
:103FAC005A077B689B6B9A4201D0012300E00023E7
:103FBC001800BD4608B080BD0010024080B584B02A
:103FCC0000AF786039607B68002B01D10123E9E0F8
:103FDC00764B1B68072213403A689A421ED9734BE2
:103FEC001B68072293431900704B3A680A431A6006
:103FFC00FEF7F6FE0300FB6009E0FEF7F1FE02009F
:10400C00FB68D31A6A4A934201D90323CAE0674B6F
:10401C001B68072213403A689A42EED17B681B68F2
:10402C000222134015D07B681B680422134006D073
:10403C00604B9A685F4BE021C9010A439A605D4B63
:10404C009B685D4A134019007B689A68594B0A4378
:10405C009A607B681B680122134057D07B685B68B1
:10406C00012B07D1534B1A6880239B0213402BD191
:10407C00012397E07B685B68022B07D14D4B1A68D4
:10408C0080239B0413401FD101238BE07B685B686A
:10409C00002B07D1474B1A688023DB00134013D148
:1040AC0001237FE07B685B68032B06D1414B1B6EC1
:1040BC000222134008D1012374E03E4BDB6D022237
:1040CC00134001D101236DE03A4B9B6807229343C7
:1040DC0019007B685A68374B0A439A60FEF780FEDA
:1040EC000300FB6009E0FEF77BFE0200FB68D31ABD
:1040FC002F4A934201D9032354E02E4B9B6838225C
:10410C001A407B685B68DB009A42ECD1274B1B683A
:10411C00072213403A689A421ED2244B1B6807228E
:10412C0093431900214B3A680A431A60FEF758FE74
:10413C000300FB6009E0FEF753FE0200FB68D31A94
:10414C001B4A934201D903232CE0184B1B6807220E
:10415C0013403A689A42EED17B681B6804221340E4
:10416C0009D0144B9B68154A134019007B68DA6818
:10417C00104B0A439A6000F029F801000D4B9B6824
:10418C001B0A0F221A400E4B9200D3581F221340C9
:10419C000A00DA400B4B1A600B4B1B681800FEF739
:1041AC00C3FD03001800BD4604B080BD00200240D2
:1041BC008813000000100240FFF0FFFFFF8FFFFF8D
:1041CC00B0590108180000201C00002080B586B0F2
:1041DC0000AF3C4B9B68382213400FD1394B1B6806
:1041EC00DB0A0722134001229A4013003B60396816
:1041FC003548FBF795FF03003B615DE0314B9B6855
:10420C0038221340082B02D1304B3B6154E02D4B2C
:10421C009B6838221340102B38D12A4BDB680322C1
:10422C001340FB60274BDB681B090722134001334B
:10423C00BB60FB68032B0DD1B9682448FBF770FFFA
:10424C00030019001F4BDB681B0A7F2213404B43F2
:10425C007B610DE0B9681C48FBF762FF0300190095
:10426C00184BDB681B0A7F2213404B437B61C04613
:10427C00144BDB685B0F0722134001337B607968BA
:10428C007869FBF74DFF03003B6115E00D4B9B6814
:10429C0038221340202B03D180231B023B610BE0FF
:1042AC00084B9B6838221340182B03D1FA23DB01EF
:1042BC003B6101E000233B613B691800BD4606B041
:1042CC0080BDC046001002400024F40000127A00A9
:1042DC0080B584B000AF78607B68002B01D10123DE
:1042EC00CCE07B685B6A002B09D17B685A6882231F
:1042FC005B009A4209D07B680022DA6105E07B689A
:10430C0000221A617B6800225A617B6800229A6243
:10431C007B685D229B5CDBB2002B2BD17B685C2223
:10432C00002199547B68574A5A667B68564A9A66AC
:10433C007B68564ADA667B68554A1A677B68554A29
:10434C005A677B68544A9A677B68544ADA677B6879
:10435C008021534A5A507B6884229B58002B03D1EE
:10436C007B6884214F4A5A507B6884229B587A6818
:10437C00100098477B685D22022199547B681B686A
:10438C001A687B681B6840218A431A607B68DA686C
:10439C00E023DB009A4202D90023FB6002E0802379
:1043AC005B01FB607B68DA68F0231B019A4208D042
:1043BC007B68DA68E023DB009A4202D07B6800223B
:1043CC009A627B685A6882235B001A407B68996802
:1043DC0084231B020B401A437B681B6902210B4090
:1043EC001A437B685B6901210B401A437B6899690E
:1043FC0080239B000B401A437B68DB6938210B4000
:10440C001A437B681B6A80210B401A4311007B689E
:10441C009A6A80239B011A407B681B680A431A60C6
:10442C007B689B691B0C04221A407B685B6A102119
:10443C000B401A437B685B6B08210B401A437B686B
:10444C00D968F0231B010B401A431100FA68802332
:10445C005B011A407B681B680A435A607B681B68C7
:10446C00DA697B681B6810490A40DA617B680022B4
:10447C001A667B685D220121995400231800BD4601
:10448C0004B080BDB5460008C5460008D5460008F6
:10449C00E5460008F54600080547000815470008E2
:1044AC0025470008C5270008FFF7FFFF80B588B037
:1044BC0000AF78607B681B685B68FB617B681B687E
:1044CC009B68BB61BB699B091A00012313400FD188
:1044DC00BB69012213400BD0FB699B091A00012315
:1044EC00134005D07B68DB6C7A6810009847D6E0E7
:1044FC00BB695B081A00012313400BD0FB69DB0975
:10450C001A000123134005D07B681B6D7A681000DC
:10451C009847C4E0BB695B091A00012313400CD116
:10452C00BB699B091A000123134006D1BB691B0A06
:10453C001A000123134000D1B1E0FB695B091A009A
:10454C000123134000D1AAE0BB699B091A00012387
:10455C00134023D07B685D229B5CDBB2032B11D014
:10456C007B681B6E04221A437B681A6600237B61EE
:10457C007B681B68DB687B617B681B689B687B6165
:10458C007B690BE000233B617B681B68DB683B614C
:10459C007B681B689B683B613B6980E0BB695B097E
:1045AC001A000123134014D07B681B6E01221A439E
:1045BC007B681A660023FB607B681B689B68FB604A
:1045CC007B681B681A687B681B6840218A431A60E9
:1045DC00FB68BB691B0A1A00012313400CD07B68D3
:1045EC001B6E08221A437B681A660023BB607B682B
:1045FC001B689B68BB60BB687B681B6E002B4DD037
:10460C007B681B685A687B681B68E0218A435A6088
:10461C007B685D2201219954FB690222134003D16E
:10462C00FB690122134032D07B681B685A687B6897
:10463C001B6803218A435A607B689B6D002B10D04A
:10464C007B689B6D174A9A637B689B6D1800FEF71D
:10465C0069FE031E05D07B681B6E40221A437B68E3
:10466C001A667B685B6D002B17D07B685B6D0D4AFF
:10467C009A637B685B6D1800FEF754FE031E0CD02A
:10468C007B681B6E40221A437B681A6605E07B68C8
:10469C00DB6F7A681000984700E0C046C046BD4604
:1046AC0008B080BD3547000880B582B000AF786097
:1046BC00C046BD4602B080BD80B582B000AF786008
:1046CC00C046BD4602B080BD80B582B000AF7860F8
:1046DC00C046BD4602B080BD80B582B000AF7860E8
:1046EC00C046BD4602B080BD80B582B000AF7860D8
:1046FC00C046BD4602B080BD80B582B000AF7860C8
:10470C00C046BD4602B080BD80B582B000AF7860B7
:10471C00C046BD4602B080BD80B582B000AF7860A7
:10472C00C046BD4602B080BD80B584B000AF786095
:10473C007B689B6AFB60FB68462200219952FB68F0
:10474C000022DA87FB68DB6FFA6810009847C046D6
:10475C00BD4604B080BD80B582B000AF78607B6888
:10476C00002B01D101234AE07B683D229B5CDBB22C
:10477C00002B07D17B683C22002199547B681800E0
:10478C00FEF758F97B683D22022199547B681A6820
:10479C007B6804331900100000F090F97B68482204
:1047AC00012199547B683E22012199547B683F2258
:1047BC00012199547B684022012199547B68412244
:1047CC00012199547B684222012199547B68432230
:1047DC00012199547B684422012199547B6845221C
:1047EC00012199547B684622012199547B68472208
:1047FC00012199547B683D22012199540023180012
:10480C00BD4602B080BD000080B582B000AF7860BC
:10481C007B681B681B6902221340022B24D17B6826
:10482C001B68DB6802221340022B1DD17B681B68BE
:10483C00032252421A617B6801221A777B681B683B
:10484C009B690322134004D07B68180000F01EF90A
:10485C0007E07B68180000F011F97B68180000F085
:10486C001DF97B6800221A777B681B681B69042280
:10487C001340042B25D17B681B68DB680422134092
:10488C00042B1ED17B681B68052252421A617B687F
:10489C0002221A777B681B689A69C0239B0013401D
:1048AC0004D07B68180000F0F1F807E07B68180072
:1048BC0000F0E4F87B68180000F0F0F87B68002248
:1048CC001A777B681B681B6908221340082B24D1BC
:1048DC007B681B68DB6808221340082B1DD17B68A2
:1048EC001B68092252421A617B6804221A777B6882
:1048FC001B68DB690322134004D07B68180000F0AE
:10490C00C5F807E07B68180000F0B8F87B68180061
:10491C0000F0C4F87B6800221A777B681B681B695F
:10492C0010221340102B25D17B681B68DB681022EA
:10493C001340102B1ED17B681B68112252421A6146
:10494C007B6808221A777B681B68DA69C0239B0096
:10495C00134004D07B68180000F098F807E07B68DF
:10496C00180000F08BF87B68180000F097F87B6853
:10497C0000221A777B681B681B6901221340012BEC
:10498C000FD17B681B68DB6801221340012B08D117
:10499C007B681B68022252421A617B68180000F087
:1049AC0065F87B681B681B6980221340802B0FD134
:1049BC007B681B68DB6880221340802B08D17B68E6
:1049CC001B68812252421A617B68180000F07EF944
:1049DC007B681B681A6980235B001A4080235B008C
:1049EC009A420ED17B681B68DB6880221340802BB7
:1049FC0007D17B681B681C4A1A617B68180000F0A1
:104A0C006DF97B681B681B6940221340402B0FD14A
:104A1C007B681B68DB6840221340402B08D17B6805
:104A2C001B68412252421A617B68180000F03EF864
:104A3C007B681B681B6920221340202B0FD17B68DD
:104A4C001B68DB6820221340202B08D17B681B6875
:104A5C00212252421A617B68180000F02FF9C046DF
:104A6C00BD4602B080BDC046FFFEFFFF80B582B0E0
:104A7C0000AF7860C046BD4602B080BD80B582B044
:104A8C0000AF7860C046BD4602B080BD80B582B034
:104A9C0000AF7860C046BD4602B080BD80B582B024
:104AAC0000AF7860C046BD4602B080BD80B582B014
:104ABC0000AF7860C046BD4602B080BD80B584B002
:104ACC0000AF786039607B681B68FB607B68384A94
:104ADC0093420CD07A688023DB059A4207D07B681E
:104AEC00344A934203D07B68334A934208D1FB6823
:104AFC0070229343FB603B685B68FA681343FB606E
:104B0C007B682B4A93421CD07A688023DB059A423F
:104B1C0017D07B68274A934213D07B68264A93426E
:104B2C000FD07B68254A93420BD07B68244A934272
:104B3C0007D07B68234A934203D07B68224A934276
:104B4C0008D1FB68214A1340FB603B68DB68FA68BC
:104B5C001343FB60FB68802293431A003B685B693C
:104B6C001343FB607B68FA681A603B689A687B6841
:104B7C00DA623B681A687B689A627B680C4A9342DB
:104B8C000BD07B680E4A934207D07B680D4A934248
:104B9C0003D07B680C4A934203D13B681A697B684B
:104BAC001A637B6801225A61C046BD4604B080BDC1
:104BBC00002C014000040040000800400020004090
:104BCC00004001400044014000480140FFFCFFFF51
:104BDC0080B584B000AF786039607B683C229B5C08
:104BEC00012B01D102235AE07B683C22012199540C
:104BFC007B683D22022199547B681B685B68FB60D3
:104C0C007B681B689B68BB607B681B68264A934269
:104C1C0008D1FB68254A1340FB603B685B68FA6867
:104C2C001343FB60FB6870229343FB603B681B687B
:104C3C00FA681343FB607B681B68FA685A607B68F0
:104C4C001B68194A934214D07B681A688023DB05D1
:104C5C009A420ED07B681B68154A934209D07B6838
:104C6C001B68144A934204D07B681B68124A934217
:104C7C000CD1BB6880229343BB603B689B68BA68CD
:104C8C001343BB607B681B68BA689A607B683D22E3
:104C9C00012199547B683C2200219954002318006F
:104CAC00BD4604B080BDC046002C0140FFFF0FFF85
:104CBC0000040040000800400040014080B582B074
:104CCC0000AF7860C046BD4602B080BD80B582B0F2
:104CDC0000AF7860C046BD4602B080BD80B582B0E2
:104CEC0000AF7860C046BD4602B080BD80B500AF55
:104CFC0005F02CFBC046BD4680BD80B500AF05F06D
:104D0C005FFBC046BD4680BD80B582B000AF786009
:104D1C00034A7B681A607B681800BD4602B080BDF0
:104D2C000C5A010880B582B000AF78607B6818001F
:104D3C00FFF7EAFF7B68042118000EF06BFB7B6821
:104D4C001800BD4602B080BD80B582B000AF78605F
:104D5C000A00BB1C1A80BB1C1B88022B0FD013DC57
:104D6C00002B02D0012B05D00EE003F0D5FD030083
:104D7C001B680AE003F0D0FD03005B6805E003F05C
:104D8C00CBFD03009B6800E000231800BD4602B079
:104D9C0080BD000080B582B000AF7860054A7B68AA
:104DAC001A607B681800FFF7AFFF7B681800BD46E0
:104DBC0002B080BDF859010880B582B000AF7860B0
:104DCC007B681800FFF7E6FF7B68042118000EF0E3
:104DDC0021FB7B681800BD4602B080BD80B582B057
:104DEC0000AF7860034A7B681A607B681800BD4688
:104DFC0002B080BD645E010880B582B000AF7860FF
:104E0C007B681800FFF7EAFF7B68102118000EF092
:104E1C0001FB7B681800BD4602B080BDB0B586B002
:104E2C0000AF78600A00BB1C1A80BB1C1B88002BCF
:104E3C0001D1002314E000233B610F217B180022D9
:104E4C001A707B681B6808331C687D181023FA18CD
:104E5C00BB1C198878682B00A04703007B617B6919
:104E6C001800BD4606B0B0BD80B582B000AF78600A
:104E7C007B685B891800BD4602B080BD80B582B0EE
:104E8C0000AF78607B689B891800BD4602B080BD7E
:104E9C0080B582B000AF78607B689B881800BD46F7
:104EAC0002B080BD80B582B000AF78607B689A8814
:104EBC007B689B799BB2D3189BB21800BD4602B09D
:104ECC0080BD80B582B000AF78607B68DB795B0613
:104EDC005B0EDBB21800BD4602B080BD80B582B05F
:104EEC0000AF78607B68DB791B06DB0FDBB2180048
:104EFC00BD4602B080BD000080B582B000AF7860C6
:104F0C00034A7B681A607B681800BD4602B080BDFE
:104F1C00205A010880B582B000AF78607B68180019
:104F2C00FFF7EAFF7B68082118000EF073FA7B6824
:104F3C001800BD4602B080BD80B500AF024B180012
:104F4C0000F056F8BD4680BDC000002080B58CB086
:104F5C000CAF204B1B78BFF35B8FDBB21A00012325
:104F6C0013405A425341DBB2002B2FD0194B18007F
:104F7C000EF054FA03005A1E9341DBB2002B25D0DD
:104F8C00154A1649164800230B9300230A93002355
:104F9C0009933F230893134B0793134B069300235A
:104FAC00059300230493012303930423029300230A
:104FBC0001930A230093012300F06AF9054B1800B2
:104FCC000EF039FA094B18000EF072FA044B180067
:104FDC00BD4680BDEC00002080870108CC100790F6
:104FEC00C000002040870108285A0108454F0008DE
:104FFC0080B582B000AF7860054A7B681A607B6828
:10500C001800FFF7EBFE7B681800BD4602B080BDB0
:10501C003C5A010880B582B000AF78607B681800FC
:10502C00FFF7E6FF7B682C2118000EF0F3F97B6884
:10503C001800BD4602B080BD80B500AF024B180011
:10504C00FFF7D6FFBD4680BDF000002080B58CB0C8
:10505C000CAF204B1B78BFF35B8FDBB21A00012324
:10506C0013405A425341DBB2002B2FD0194B18007E
:10507C000EF0D4F903005A1E9341DBB2002B25D05D
:10508C00154A1649164800230B9300230A93002354
:10509C0009933F230893134B0793134B0693012358
:1050AC000593002304930123039304230293002309
:1050BC000193142300931A2300F0EAF8054B18000F
:1050CC000EF0B9F9094B18000EF0F2F9044B180068
:1050DC00BD4680BD1C01002084870108DC100790B0
:1050EC00F0000020448701082C5A010845500008A4
:1050FC0080B500AF024B1800FFF77AFFBD4680BDAC
:10510C002001002080B58CB00CAF204B1B78BFF376
:10511C005B8FDBB21A00012313405A425341DBB2BE
:10512C00002B2FD0194B18000EF078F903005A1EE3
:10513C009341DBB2002B25D0154A164916480023A3
:10514C000B9300230A93002309933F230893134BDB
:10515C000793134B06930023059300230493012319
:10516C000393042302930023019328230093012328
:10517C0000F08EF8054B18000EF05DF9094B180085
:10518C000EF096F9044B1800BD4680BD4C01002072
:10519C00B887010848120790200100207C8701087D
:1051AC00305A0108FD50000890B583B000AF78600C
:1051BC000C0010001900BB1C221C1A807B1C021C4A
:1051CC001A703B000A1C1A70214A7B681A607B68B3
:1051DC00BA1C12889A807B687A1C12789A713B00F0
:1051EC001B787F221340DAB27B687F210A401000C3
:1051FC00DA797F218A43111C021C0A43DA711823C5
:10520C00FB181B7801221340DAB27B68D001DA79E3
:10521C007F210A40111C021C0A43DA717B681C2294
:10522C00BA1812781A727B682022BA1812785A723D
:10523C007B682422BA1812885A817B682822BA18F3
:10524C0012889A817B681800BD4603B090BDC04699
:10525C00645E010880B500AF024B1B681800BD46A8
:10526C0080BDC046BC00002080B582B000AF786025
:10527C007B685B6A1800BD4602B080BD80B582B009
:10528C0000AF78607B689B6A1800BD4602B080BD99
:10529C0090B58BB006AFF860B9607A601A00BB1C91
:1052AC001A80F8682823FB181C782423FB181A781A
:1052BC002023FB1819884423FB181B8804934023D4
:1052CC00FB181B8803933423FB181B7802933023A1
:1052DC00FB181B7801932C23FB181B7800932300DD
:1052EC00FFF762FF0E4AFB681A60FB68BA681A6126
:1052FC00FB68BA1C12889A82FB687A689A61FB6810
:10530C00BA6BDA61FB68FA6B1A62FB68BA6C5A62A8
:10531C00FB68FA6C9A62FB681800BD4605B090BD3C
:10532C003C5A010890B587B000AFF8607A603B60DA
:10533C000A203B180A1C1A803B181A88FB681100BB
:10534C00180000F0A6F803007B617B6901332BD0B9
:10535C00FFF780FF03003B613B691B680C331C6843
:10536C00FB6819697A691300DB009B1A5B00C9188A
:10537C00104A38690E23A047FB681B684C331B6826
:10538C000C49FA681000984702007B681A60FA68AA
:10539C00FB681B6834331B681000984703001A0025
:1053AC003B681A70034B00E000231800BD4607B0A1
:1053BC0090BDC0465001002080B584B000AF78602D
:1053CC0039607B68DB69FB603B689B88DB0A9BB2BE
:1053DC009B00FA68D3181A683B6819885B881B0411
:1053EC000B43D3181800BD4604B080BD80B588B0FF
:1053FC0000AFF8607A600A23FB180A1C1A807B68DD
:10540C00002B03D07B681B7B002B01D100233CE0DD
:10541C00FB681A6A7B687B617B695B7B1B0219B238
:10542C00E023DB000B4019B27B69DB7A1BB20B4328
:10543C001BB29BB29B00D318FB617B681A7B1A23AF
:10544C00FB181A801A23FB181B88002B1CD0FB6935
:10545C001B880A22BA1812889A4203D1FB699B78DE
:10546C005BB212E0FB691B880A22BA1812889A42B6
:10547C0009D31A217B181A887B18013A1A80FB6908
:10548C000433FB61DEE7C04600231800BD4608B0BC
:10549C0080BD80B586B000AF78600A00BB1C1A8056
:1054AC0000237B617B689B8A013B3B61BB1C1A8898
:1054BC007B6899697B695B00CB181B88D31A7A6966
:1054CC00D318FB60FA687B699A4202DA01235B42CB
:1054DC0090E0FA683B699A421FDD7B689A693B69E8
:1054EC005B00D3181B881A00BB1C1B88D31A3A69A3
:1054FC00D31AFB60FA683B699A4202DD01235B42D6
:10550C0078E0FA687B699A4207DA7A693B69D318C2
:10551C00002B00DA01335B10FB607A693B699A421D
:10552C0000DD65E07B689A69FB685B00D3181B881B
:10553C00BA1C12889A4201D1FB685BE07B689A69BD
:10554C00FB685B00D3181B88BA1C12889A4224D2C1
:10555C00FB68013B3B613A697B699A4241DB7B68A2
:10556C009A693B695B00D3181B881A00BB1C1B880B
:10557C00D31A3A69D31AFB60FA683B699A4232DC57
:10558C00FA687B699A42C8DA7A693B69D318002BAE
:10559C0000DA01335B10FB60BFE7FB6801337B6112
:1055AC007A693B699A4220DCBB1C1A887B68996932
:1055BC007B695B00CB181B88D31A7A69D318FB6004
:1055CC00FA687B699A4212DBFA683B699A42A4DD5D
:1055DC007A693B69D318002B00DA01335B10FB604E
:1055EC009BE7C04604E0C04602E0C04600E0C0466F
:1055FC0001235B421800BD4606B080BD80B582B069
:10560C0000AF786039603B681800BD4602B080BDC1
:10561C0080B582B000AF78603960C046BD4602B03C
:10562C0080BD80B582B000AF78603960C046BD46A1
:10563C0002B080BD80B582B000AF78603960C046E2
:10564C00BD4602B080BD80B582B000AF78600A0064
:10565C00FB1C1A70C046BD4602B080BD80B582B03E
:10566C0000AF7860C046BD4602B080BD80B582B048
:10567C0000AF7860C046BD4602B080BD80B582B038
:10568C0000AF7860034A7B681A607B681800BD46DF
:10569C0002B080BD945B010880B582B000AF786029
:1056AC007B681800FFF7EAFF7B68042118000DF0F7
:1056BC00B1FE7B681800BD4602B080BD80B582B0DB
:1056CC0000AF78600A00FB1C1A70C046BD4602B0E1
:1056DC0080BD80B582B000AF786039607A6896235F
:1056EC005B003968D318082218000DF037FFC0464C
:1056FC00BD4602B080BD000080B582B000AF7860BE
:10570C00034A7B681A607B681800BD4602B080BDF6
:10571C007C5B010880B582B000AF78607B681800B4
:10572C00FFF7EAFF7B68042118000DF073FE7B681D
:10573C001800BD4602B080BD80B582B000AF786065
:10574C00064A7B681A607B6800225A607B680022DC
:10575C001A727B681800BD4602B080BD585B010808
:10576C0080B582B000AF7860034A7B681A607B68B2
:10577C001800BD4602B080BD585B010880B582B0F0
:10578C0000AF78607B681800FFF7EAFF7B680C219C
:10579C0018000DF03FFE7B681800BD4602B080BDBE
:1057AC0080B582B000AF7860C046BD4602B080BD07
:1057BC0080B582B000AF7860C046BD4602B080BDF7
:1057CC0080B582B000AF7860C046BD4602B080BDE7
:1057DC0080B582B000AF786009F032F803001A6827
:1057EC003032126818009047C046BD4602B080BDEA
:1057FC0080B582B000AF786039607B683A685A60D7
:10580C00C046BD4602B080BD80B582B000AF7860A6
:10581C00054A7B681A607B681800FFF72FFF7B68CE
:10582C001800BD4602B080BD1074010880B582B06E
:10583C0000AF78607B681800FFF7E6FF9C235A00E6
:10584C007B68110018000DF0E5FD7B681800BD4663
:10585C0002B080BD80B582B000AF78607B68180064
:10586C0009F00EF80A4A7B681A607A689C235B0080
:10587C000021D1507A689E235B000021D1507A68B8
:10588C00044B1A607B681800BD4602B080BDC04650
:10589C00145B01085024002080B582B000AF786002
:1058AC007B68180000F004F8C046BD4602B080BD0D
:1058BC0080B582B000AF78607A689E235B00D358C5
:1058CC00002B10D07A689E235B00D1587A689E23F7
:1058DC005B00D3581B680C331B6808009847031EE9
:1058EC0001D0012300E00023002B11D07A689E2305
:1058FC005B00D1587A689E235B00D3581B68083331
:10590C001B68080098477A689E235B000021D150E1
:10591C00C046BD4602B080BD80B582B000AF786095
:10592C0039607B683A681A60C046BD4602B080BDDB
:10593C0080B582B000AF7860054A7B681A607B68DE
:10594C001800FFF761FF7B681800BD4602B080BDF0
:10595C00145B010880B582B000AF78607B681800DA
:10596C00FFF7E6FFA0235A007B68110018000DF02A
:10597C0051FD7B681800BD4602B080BD80B582B079
:10598C0000AF7860084A7B681A607B684133FF334C
:10599C00180001F06FF97B681800FFF7C9FF7B68EE
:1059AC001800BD4602B080BDB85A010880B582B05F
:1059BC0000AF78607B681800FFF7E0FFAC235A005B
:1059CC007B68110018000DF025FD7B681800BD46A2
:1059DC0002B080BD80B582B000AF78607B680122D8
:1059EC001A72C046BD4602B080BD80B582B000AF11
:1059FC00786039607B683A685A60C046BD4602B030
:105A0C0080BD000080B584B000AFF860B9607A60EA
:105A1C00FB681800FFF71EFF114AFB681A60FB6851
:105A2C004133FF33180000F0D5F9FA68A8235B0066
:105A3C007968D150FA68AA235B00B968D150FBF79A
:105A4C0013FC03001A6808321268012118009047F1
:105A5C00002002F0E5FEFB681800BD4604B080BDD6
:105A6C00B85A010880B582B000AF786039607B68A5
:105A7C001800BD4602B080BD80B582B000AF786022
:105A8C0039607B683A6811001800FFF7EBFF3B6840
:105A9C005A687B685A607B683A680833083203CAD4
:105AAC0003C37B681800BD4602B080BDB0B588B09A
:105ABC0000AF78607B684133FF331C0018217B18E2
:105ACC00104A1A607B1800225A607B1879680825E6
