:020000040800F2
:10000000004002208D2C0008792A00087F2A000871
:1000100000000000000000000000000000000000E0
:10002000000000000000000000000000852A000819
:1000300000000000000000008F2A0008992A000834
:10004000DD2C0008DD2C0008DD2C0008DD2C00086C
:10005000DD2C0008A72A0008DD2C0008DD2C000894
:10006000DD2C0008B72A0008C52A0008DD2C00088E
:10007000DD2C0008DD2C0008DD2C0008DD2C00083C
:10008000DD2C0008D52A0008DD2C0008DD2C000836
:10009000DD2C0008DD2C0008DD2C0008DD2C00081C
:1000A000DD2C0008DD2C0008ED2A0008DD2C0008FE
:0C00B000DD2C0008DD2C0008DD2C000811
:1000BC0010B5064C2378002B07D1054B002B02D032
:1000CC00044800E000BF0123237010BD98000020FD
:1000DC00000000004C460108044B10B5002B03D067
:1000EC000349044800E000BF10BDC04600000000FA
:1000FC009C0000204C46010802B471464908490096
:10010C00095C49008E4402BC7047C04603B471467A
:10011C00490840004900095E49008E4403BC704701
:10012C00002243088B4274D303098B425FD3030A2A
:10013C008B4244D3030B8B4228D3030C8B420DD33D
:10014C00FF22090212BA030C8B4202D312120902CB
:10015C0065D0030B8B4219D300E0090AC30B8B4209
:10016C0001D3CB03C01A5241830B8B4201D38B03B7
:10017C00C01A5241430B8B4201D34B03C01A52415C
:10018C00030B8B4201D30B03C01A5241C30A8B429F
:10019C0001D3CB02C01A5241830A8B4201D38B028A
:1001AC00C01A5241430A8B4201D34B02C01A52412E
:1001BC00030A8B4201D30B02C01A5241CDD2C309A0
:1001CC008B4201D3CB01C01A524183098B4201D31C
:1001DC008B01C01A524143098B4201D34B01C01A07
:1001EC00524103098B4201D30B01C01A5241C3087F
:1001FC008B4201D3CB00C01A524183088B4201D3EE
:10020C008B00C01A524143088B4201D34B00C01AD9
:10021C005241411A00D20146524110467047FFE745
:10022C0001B5002000F0F0F802BDC0460029F7D05F
:10023C0076E7704703460B437FD4002243088B427A
:10024C0074D303098B425FD3030A8B4244D3030B51
:10025C008B4228D3030C8B420DD3FF22090212BA16
:10026C00030C8B4202D31212090265D0030B8B4292
:10027C0019D300E0090AC30B8B4201D3CB03C01A7C
:10028C005241830B8B4201D38B03C01A5241430B57
:10029C008B4201D34B03C01A5241030B8B4201D347
:1002AC000B03C01A5241C30A8B4201D3CB02C01AB2
:1002BC005241830A8B4201D38B02C01A5241430A2A
:1002CC008B4201D34B02C01A5241030A8B4201D319
:1002DC000B02C01A5241CDD2C3098B4201D3CB01C0
:1002EC00C01A524183098B4201D38B01C01A52416F
:1002FC0043098B4201D34B01C01A524103098B4273
:10030C0001D30B01C01A5241C3088B4201D3CB005D
:10031C00C01A524183088B4201D38B00C01A524140
:10032C0043088B4201D34B00C01A5241411A00D2F0
:10033C0001465241104670475DE0CA0F00D0494259
:10034C00031000D34042534000229C4603098B42C9
:10035C002DD3030A8B4212D3FC22890112BA030A51
:10036C008B420CD3890192118B4208D389019211D3
:10037C008B4204D389013AD0921100E08909C30958
:10038C008B4201D3CB01C01A524183098B4201D35A
:10039C008B01C01A524143098B4201D34B01C01A45
:1003AC00524103098B4201D30B01C01A5241C308BD
:1003BC008B4201D3CB00C01A524183088B4201D32C
:1003CC008B00C01A5241D9D243088B4201D34B0047
:1003DC00C01A5241411A00D20146634652415B1089
:1003EC00104601D34042002B00D54942704763466A
:1003FC005B1000D3404201B5002000F005F802BDAF
:10040C000029F8D016E770477047C04684460800AC
:10041C006146FFE71FB500F055FB002801D4002111
:10042C00C8421FBD10B500F0E1FA4042013010BDCA
:10043C0010B500F047FB002801DB002010BD0120A7
:10044C0010BDC04610B500F03DFB002801DD0020BA
:10045C0010BD012010BDC04610B500F0EDFA00280B
:10046C0001DC002010BD012010BDC04610B500F00D
:10047C00E3FA002801DA002010BD012010BDC046AF
:10048C00F0B5C64643025B0A4E0245004F00DA0047
:10049C00C40F9C46700A904600B52D0E3F0EC90F36
:1004AC00B6098C424BD0EA1B002A36DD002F61D0F6
:1004BC00FF2D00D1ADE08023DB041E431B2A00DCA2
:1004CC00D3E001204346181A430100D48CE080018C
:1004DC008709380000F07CFE05388740854200DC37
:1004EC00B6E02D1AB3483840430704D00F2303401D
:1004FC00042B00D00430430100D478E06A1CFE2D9C
:10050C0065D08001430A9C46D2B26346D00518439D
:10051C00E407204380BCB846F0BD002A35D07A1BD6
:10052C00002D00D0AFE04346002B00D1A7E0531EB6
:10053C00012A00D12FE1FF2A69D01A00AAE0E91B99
:10054C00002970DD002F37D0FF2D62D08023DB0413
:10055C001E431B2900DCB0E001204044430143D57D
:10056C000135FF2D33D00123934A0340400810403E
:10057C001843B9E7002E00D183E0511E012A00D1A7
:10058C00D8E0FF2A45D00A0098E7FE276A1C1742DC
:10059C0000D086E0002D00D0B7E04346002B00D100
:1005AC00F3E00022002EB0D0981B430100D4FAE0F7
:1005BC0043460C00F01A97E7002E00D1C8E04A1E03
:1005CC00012900D1AEE0FF2923D01100C1E700239F
:1005DC00FF229C4699E7FE216A1C114277D0FF2A24
:1005EC00F5D0150046447008430700D07EE7C308D9
:1005FC00FF2D0ED05B025B0A9C46EAB285E7002E0B
:10060C0007D08022D203134203D0104201D10C0038
:10061C000300002BDBD08020C00318434002430AA8
:10062C009C46FF2271E70029D5D07A1B002D60D1A2
:10063C004346002B24D0531E012A73D0FF2AE7D047
:10064C001A001B2A00DC85E001203D00801985E79B
:10065C0020233A00451B38000135EA405D1BA840B9
:10066C00431E9841002510433EE7202330009B1A7F
:10067C0031009840D140431E9841084322E70C00BA
:10068C0003001500B4E7FF2FC1D080234046DB04E4
:10069C00184380461B2A51DD01200C003D00301A06
:1006AC0012E743469F1B7B012BD4002F00D010E791
:1006BC000023002400229C4627E720233200300030
:1006CC00CA40591A8840431E9841104345E7002DF3
:1006DC004AD14346002B63D00022002E00D114E7F0
:1006EC0030004044430100D47EE7324B01351840C2
:1006FC007AE7FF2F8CD080234146DB0419438846D0
:10070C009FE743460C00F71AE3E64246002A00D066
:10071C0075E7002E00D07AE78023DB0300249C468B
:10072C00FF22F2E6300040440125430100D45BE790
:10073C00022518E743460125981BC5E620234446AD
:10074C004046D4409A1A9040431E98412043A4E757
:10075C000D004DE7202341464046D1409A1A904067
:10076C00431E9841084370E74246002A00D14FE7E8
:10077C00002E00D14DE78022D203134200D148E76E
:10078C00104200D045E7030043E7002E90D00C0048
:10079C0084460022B9E643460C00F01A013593E674
:1007AC0084460022B1E6002800D01DE70023002477
:1007BC009C46AAE6FFFFFFFBFFFFFF7DF0B54F460F
:1007CC004646D6464502C0B547000C1C6D0A3F0E86
:1007DC00C60F002F00D170E0FF2F00D175E0EB00A9
:1007EC008025ED041D43002399469A467F3F600205
:1007FC00430A984663001B0EE40F002B4ED0FF2BD0
:10080C0046D04246D0008022D204024390460022B9
:10081C007F3B3100FF1A4B466140C9B213430F2B8B
:10082C0000D9B5E06E489B00C3589F4600239846FC
:10083C002600454692465346022B00D189E0032BF5
:10084C0000D19EE0012B18D03B007F33002B69DDDB
:10085C006A0704D00F222A40042A00D004352A014A
:10086C0003D5604B1D403B008033FE2B00DD70E058
:10087C00AD016D0AD8B202E00E0000200025C005C3
:10088C002843F6073043E0BCBA46B146A846F0BD53
:10089C004346002B3FD10222FF3F03E04346002B8F
:1008AC002DD1012231004B466140C9B213430F2BAD
:1008BC0034D84D489B00C3589F46002D13D10423B8
:1008CC009946033B00279A4691E7002D05D1082352
:1008DC009946063BFF279A4689E70C239946093B24
:1008EC00FF279A4683E7280000F072FC7627431F07
:1008FC009D4000237F4299469A463F1A77E740462F
:10090C0000F066FC4246431F9A4076235B429046B9
:10091C001B1A00227DE7FF2303227AE70E00FF203B
:10092C000025ACE70120C01A1B28A6DC9E372A0044
:10093C00BD40C2406B1E9D4115436B0704D00F2375
:10094C002B40042B00D004356B0144D5012000252D
:10095C0095E7FF20002592E780250026FF20ED0378
:10096C008DE7002398468020C003054209D04346FA
:10097C00034206D1454605436D022600FF206D0A51
:10098C007DE78020C00305436D02FF206D0A76E7EA
:10099C0042466B015001834219D21B220025013FB4
:1009AC0001261C006D005B00002C01DB984201D875
:1009BC001B1A3543013A002AF3D15A1E93411D43A9
:1009CC003B007F330E00002B00DD41E7AAE71A2223
:1009DC0001251B1AE4E7AD0100206D0A4FE7C04664
:1009EC00EC580108FFFFFFF72C59010870B54200C5
:1009FC0045024E024C00C30F6D0A0120120E760AFE
:100A0C00240EC90FFF2A06D0FF2C03D0A24201D11D
:100A1C00B54206D070BD002DFCD1FF2CFAD1002EB2
:100A2C00F8D18B4206D00120002AF3D12800431EB6
:100A3C009841EFE70020EDE770B5420045024E0209
:100A4C004C00C30F6D0A120E760A240EC80FFF2A33
:100A5C001BD0FF2C0ED0002A1BD1002C01D1002E54
:100A6C001CD0002D0CD083421CD00221581E0840F3
:100A7C00013870BD002E22D1002AF4D1002DF2D104
:100A8C000028F6D101204042F3E7002D17D1FF2CAE
:100A9C00F0D0002CE7D1002EE5D1E6E70020002DA8
:100AAC00E7D0E2E7A24205DCEADBB54202D8E7D3A5
:100ABC000020DEE74342584140000138D9E70220CC
:100ACC004042D6E770B5420045024E024C00C30FBF
:100ADC006D0A120E760A240EC80FFF2A0BD0FF2CBB
:100AEC000DD0002A1FD1002C16D1002E14D10020BD
:100AFC00002D10D009E0002D0CD1FF2C13D1002EAD
:100B0C0008D1002A08D0834212D00221581E084076
:100B1C00013800E0022070BD002DF4D10028FAD17C
:100B2C0001204042F7E7002CEDD1002EEBD1ECE791
:100B3C00A24205DCF2DBB54202D8EFD30020EAE793
:100B4C004342584140000138E5E7C046F0B54F46F6
:100B5C004646D64644024500C0B5640A0F1C2D0E0D
:100B6C00C60F002D00D18DE0FF2D00D192E00023A7
:100B7C00802099469A46E400C00404437F3D7802E5
:100B8C00430A98467B001B0EFF0F002B00D170E030
:100B9C00FF2B00D186E04246D00080227F3BED182F
:100BAC000023D204024390469C4631004B467940C8
:100BBC00681C0F2B1CD8764A9B00D3589F463900D3
:100BCC004446E2465346022B0FD0032B00D1D7E00C
:100BDC00012B37D100200024C0052043C90708434E
:100BEC00E0BCBA46B146A846F0BDFF200024F3E7AE
:100BFC00260C2404220C44462404240C43462700CF
:100C0C001B0C574374435A435E4312193B0C9B18FD
:100C1C009C4203D980225202944666443F041A0433
:100C2C003F0CD2199401671EBC411B0C920E9B19F0
:100C3C0014439B011C431B0100D49BE0012362085D
:100C4C001C40144302007F32002A64DD630704D089
:100C5C000F232340042B00D00434230103D50200BE
:100C6C004C4B80321C40FE2ABFDCA401640AD0B27B
:100C7C00B2E74346002B3DD14A4601331A43914615
:100C8C009C4692E7002C29D104239946033B00256E
:100C9C009A4674E7002C1BD108239946063BFF2586
:100CAC009A466CE74346FF35002B0BD102234A468C
:100CBC001A4391469C4678E753463100022B00D0EC
:100CCC0083E792E703234A461A4391469C466CE716
:100CDC000C239946093BFF259A4650E7200000F06B
:100CEC0077FA7625431F9C4000236D4299469A461D
:100CFC002D1A44E7404600F06BFA4246431F9A40D7
:100D0C0000232D1A90469C46763D4EE78024002108
:100D1C00FF20E40360E701239B1A1B2B00DD59E73E
:100D2C0022009E30DA4084401300621E94411C4322
:100D3C00630704D00F232340042B00D00434630139
:100D4C001AD50120002447E78020C003044209D0B3
:100D5C004346034206D14446044364023900FF2053
:100D6C00640A39E78020C003044364023100FF2089
:100D7C00640A31E7280065E7A4010020640A2BE728
:100D8C008020C00304436402FF20640A24E7C046A9
:100D9C006C590108FFFFFFF7F8B5CE4647464302F2
:100DAC005B0A4E02DA009446720A914645004A00EC
:100DBC0080B52D0E1F00C40F120EC90FB609FF2AE5
:100DCC005BD0012041408C4239D0A81A00285ADD52
:100DDC00002A6AD0FF2D00D1D9E08022D20416431C
:100DEC001B2800DCE9E001206346181A430100D4FB
:100DFC00B4E080018709380000F0EAF90538874033
:100E0C00854200DCCCE02D1AB5483840430704D0AD
:100E1C000F230340042B00D00430430100D4A0E086
:100E2C006A1CFE2D00D18DE08001470AD2B2D0059C
:100E3C003843E4072043C0BCB946B046F8BDA81AF5
:100E4C008046002845DD002A70D0FF2D00D19EE0A1
:100E5C008023DB041E4343461B2B00DCD2E0012025
:100E6C00604443017AD50135FF2D6BD001239D4A97
:100E7C000340400810401843C8E7002E20D08C4295
:100E8C0023D02800FF38002839D0571B002D00D064
:100E9C009DE06346002B00D1DBE07B1E012F00D1CF
:100EAC000DE1FF2F71D01F0098E0002E00D1A7E0BC
:100EBC00421E012800D1E6E0FF2868D010008FE721
:100ECC0001204140A14200D07FE7FF2040428046F4
:100EDC00A8444046002838D0511B002D00D1AEE06C
:100EEC00FF2A00D1DFE080236046DB0418438446F0
:100EFC001B2900DCD9E0012015008019B1E7FE2088
:100F0C006A1C104271D1002D00D0A6E06346002B64
:100F1C0000D1D9E00022002E00D188E7981B4301B4
:100F2C0000D4E1E063460C00F01A6FE7002E00D10C
:100F3C00B7E00200013A012800D19CE0FF2826D03E
:100F4C00904688E7FF22002771E7FE206A1C1042BA
:100F5C0064D0FF2AF6D0150066447008430700D011
:100F6C0056E7C308FF2D12D05B025F0AEAB25EE7B8
:100F7C006246002A00D196E0002E08D08022D203CF
:100F8C00134204D04846104201D10C004B46002BB2
:100F9C00D8D08027FF031F437F02FF227F0A46E73A
:100FAC0020233A00451B38000135EA405D1BA84060
:100FBC00431E98410025104328E720231B1A3200BA
:100FCC009E40C2403000431E984110430CE7FF2A5C
:100FDC00DBD080236046DB04184384461B2F56DD90
:100FEC0001200C001500301A00E763469F1B7B01A3
:100FFC003DD4002F00D0FEE600240022002716E787
:10100C000500AFE7320043464146DA4020235B1A25
:10101C009E403000431E9841104321E7002DA7D17C
:10102C006346002B59D00022002E00D1FFE6300081
:10103C006044430192D52A4B013518408EE7634634
:10104C00002B47D04B1E012915D0FF292BD019009E
:10105C004EE70C004B463D0084E76246002A8BD1DC
:10106C00002E92D180270024FF22FF03DFE6634687
:10107C000C00F71ABFE6300060440125430100D490
:10108C006CE70225F2E663460125981BAEE62023A9
:10109C0064466046FC40DF1BB840431E9841204329
:1010AC009FE705005EE74B4671E7202365466046E7
:1010BC00CD40591A8840431E984128431CE763468B
:1010CC000C000125F01A91E6002E95D00C004F462D
:1010DC000022ACE64B460D0044E74F460022A6E644
:1010EC00FFFFFFFBFFFFFF7D002800D036E7002449
:1010FC0000279CE641024200C30F490A0020120E51
:10110C007E2A03DD9D2A02DD094A9818704780204B
:10111C0000040143952A07DC9620821AD1404842EC
:10112C00002BF3D10800F1E7963A9140F7E7C0465F
:10113C00FFFFFF7FF8B5002813D0C317C6185E4019
:10114C00C40F300000F044F89E2305001B1A962BA8
:10115C000FDC082801DD083DAE407602760AD8B2D5
:10116C0002E0002400200026C0053043E4072043A1
:10117C00F8BD992B0CDD05223100121AD1400A0062
:10118C00010030001B318840411E8841024316008B
:10119C00052D12DC31000D4F3940720709D00F209C
:1011AC003040042805D004314A0102D59F23394030
:1011BC005B1B89014E0AD8B2D6E76A1F96403100F4
:1011CC00024F39407207F4D0E9E7C046FFFFFFFB3E
:1011DC001C2101231B04984201D3000C10391B0A5B
:1011EC00984201D3000A08391B09984201D300091F
:1011FC00043902A2105C40187047C0460403020276
:10120C0001010101000000000000000080B582B067
:10121C0000AF7860034A7B681A607B681800BD4693
:10122C0002B080BDD059010880B582B000AF7860A3
:10123C007B681800FFF7EAFF7B680421180012F0A6
:10124C00DDF87B681800BD4602B080BD80B582B069
:10125C0000AF7860C046BD4602B080BD80B500AF1F
:10126C00024B1B681800BD4680BDC046B42600204A
:10127C0080B582B000AF78600A4B1B78002B03D18D
:10128C007B6834229B5C08E07B6834229B5C002BDF
:10129C0001D1012300E00023C0461800BD4602B076
:1012AC0080BDC046AC26002080B582B000AF78600F
:1012BC007B6800221A71C046BD4602B080BDB0B535
:1012CC0084B000AF786039600F257C197B681800FA
:1012DC0000F020F8030023707B681B797A191278D0
:1012EC009A4201D1002310E07B680F217A18127802
:1012FC001A710A00BB181B78002B05D03B68BA1872
:10130C0012781A70012300E000231800BD4604B0C7
:10131C00B0BD000090B585B000AF78600F243B19CC
:10132C0000221A70FFF79AFF03001800FFF7A0FFC6
:10133C000300013B5A425341DBB2002B62D0664B97
:10134C008021180002F026FA03005A425341DBB206
:10135C00002B03D03B1935221A70B6E05F4B0121EC
:10136C00180002F017FA03005A425341DBB2002B6B
:10137C0004D00F23FB1834221A70A6E0574B02211D
:10138C00180002F007FA03005A425341DBB2002B5B
:10139C0004D00F23FB1836221A7096E080235B01D1
:1013AC004E4A1900100002F0F5F903005A4253415D
:1013BC00DBB2002B04D00F23FB1838221A7084E008
:1013CC00464B1021180002F0E5F903005A42534134
:1013DC00DBB2002B04D00F23FB1832221A7074E0FE
:1013EC0080239B013C4A1900100002F0D3F9030042
:1013FC005A425341DBB2002B67D00F23FB1830222B
:10140C001A7062E0344B8021180002F0C3F903001B
:10141C005A425341DBB2002B04D00F23FB18352268
:10142C001A7052E02D4B0121180002F0B3F90300A1
:10143C005A425341DBB2002B04D00F23FB18382245
:10144C001A7042E0254B0221180002F0A3F90300A8
:10145C005A425341DBB2002B04D00F23FB1832222B
:10146C001A7032E080235B011C4A1900100002F054
:10147C0091F903005A425341DBB2002B04D00F23E5
:10148C00FB1836221A7020E0144B1021180002F0C1
:10149C0081F903005A425341DBB2002B04D00F23D5
:1014AC00FB1834221A7010E080239B010A4A1900A1
:1014BC00100002F06FF903005A425341DBB2002BCB
:1014CC0003D00F23FB1830221A700F23FB181B7844
:1014DC001800BD4605B090BD000800500004005037
:1014EC0080B582B000AF7860054A7B681A607B6873
:1014FC001800FFF78BFE7B681800BD4602B080BD5C
:10150C00B459010880B582B000AF78607B681800D0
:10151C00FFF7E6FF7B680821180011F06FFF7B686E
:10152C001800BD4602B080BD80B588B000AFF86031
:10153C00B9607A60A023DB05802252009A62924B3C
:10154C0003221A70FB681A0C904B1B680C33D2B236
:10155C001A70C0468D4B1B689B6802221340022BED
:10156C00F8D1FB681A0A894B1B680C33D2B21A707B
:10157C00C046864B1B689B6802221340022BF8D195
:10158C00824B1B680C33FA68D2B21A707B68032B3F
:10159C001FD07B68032B0BD87B68022B2AD07B686F
:1015AC00022B05D87B68002B46D07B68012B32D0F0
:1015BC00C046764B1B689B6802221340022BF8D165
:1015CC00724B1B680C331B78704B1B680C3300225E
:1015DC001A70C0466D4B1B689B6802221340022B8D
:1015EC00F8D16A4B1B680C331B78684B1B680C33A7
:1015FC0000221A70C046654B1B689B680222134080
:10160C00022BF8D1614B1B680C331B785F4B1B68AA
:10161C000C3300221A70C0465C4B1B689B6802227C
:10162C001340022BF8D1594B1B680C331B78574BCA
:10163C001B680C3300221A70C0467B68032B11D038
:10164C007B68032B12D87B68012B03D07B68022BA1
:10165C0004D00BE04D4B1B680C331B784B4B1B68B9
:10166C000C331B78494B1B680C331B78C0467B68CA
:10167C00043BBA68D318BB6143E0C046444B9B683B
:10168C0002221340022BF9D13F49BB685A1CBA60A5
:10169C000A78D2B21A703C4B00221A70C0463C4BEE
:1016AC009B6802221340022BF9D13749BB685A1CA4
:1016BC00BA600A78D2B21A70334B00221A70C04644
:1016CC00334B9B6802221340022BF9D12E49BB6885
:1016DC005A1CBA600A78D2B21A702B4B00221A70BC
:1016EC00C0462B4B9B6802221340022BF9D1264992
:1016FC00BB685A1CBA600A78D2B21A70224B00220C
:10170C001A70BA69BB68D31A032BB6DC10E0C0465A
:10171C001F4B9B6802221340022BF9D11A49BB685C
:10172C005A1CBA600A78D2B21A70174B00221A707F
:10173C00BA68BB699A42EAD3C046144B1B689B68D3
:10174C0080221340F9D1A023DB05802252009A613C
:10175C007B68042B00D904237B610023FB6109E027
:10176C000949BB685A1CBA600A78D2B21A70FB6974
:10177C000133FB61FA697B699A42F1DBC046C046D2
:10178C00BD4608B080BDC0460C3800406C0100203E
:10179C000038004080B584B000AFF860B9607A6062
:1017AC007E4B01221A70A023DB05802252009A6224
:1017BC007B4B1B680C3303221A70C046784B1B689A
:1017CC009B6802221340022BF8D1FB681A0C744B55
:1017DC001B680C33D2B21A70C046714B1B689B68E5
:1017EC0002221340022BF8D1FB681A0A6C4B1B68BF
:1017FC000C33D2B21A70C046694B1B689B6802222C
:10180C001340022BF8D1664B1B680C33FA68D2B22A
:10181C001A70C046624B1B689B6880221340F9D13A
:10182C005F4B1B680C331B785D4B1B680C331B78B0
:10183C005B4B1B680C331B78594B1B680C331B78A8
:10184C00574B1B685A68564B1B6856490A405A60DE
:10185C00534B1B685A68524B1B68802149010A4341
:10186C005A60514B1B681A684F4B1B6801218A4305
:10187C001A604D4B1B681A004C4B9A4209D94A4BC3
:10188C005B6C1C221A404A4B012191400A005A60A1
:10189C0008E0454B5B6C1C221A40464B01219140E1
:1018AC000A005A60404B1B687A685A603C4B1B68B4
:1018BC000C331A003C4B1B689A603B4B1B68BA6894
:1018CC00DA60394B1B681A68374B1B680C218A434A
:1018DC001A60354B1B681A68334B1B6802210A438C
:1018EC001A60314B1B681A682F4B1B6801210A4385
:1018FC001A602B4B1B685A68294B1B6801210A4341
:10190C005A602D4B1B681A682B4B1B6801218A43AC
:10191C001A60294B1B681A00244B9A4209D9264B92
:10192C005B6C1C221A40224B012191400A005A6028
:10193C0008E0214B5B6C1C221A401E4B012191408C
:10194C000A005A601C4B1B687A685A60144B1B685F
:10195C000C331A00184B1B689A60174B1B68BA683B
:10196C00DA60154B1B681A68134B1B6801210A437C
:10197C001A600B4B1B681A68094B1B6840210A4301
:10198C001A60074B1B685A68054B1B6802210A43F7
:10199C005A60C046BD4604B080BDC046B4000020AD
:1019AC006C010020FF9FFFFFB80200208000024066
:1019BC0000040240000002405802002080B500AF35
:1019CC00214B1A68214B5B6C1C210B400221994066
:1019DC000B00134035D01D4B1B681B6802221340B3
:1019EC002FD01A4B1B681A68184B1B680A218A43A4
:1019FC001A60164B1B681A00154B9A4209D9134BE7
:101A0C005B6C1C221A40134B022191400A005A6055
:101A1C0008E00E4B5B6C1C221A400B4B02219140D0
:101A2C000A005A60C0460C4B1B689B68802213400E
:101A3C00F9D1A023DB05802252009A61074B0022CA
:101A4C001A70C046BD4680BD00000240B80200209E
:101A5C0080000240000402406C010020B400002011
:101A6C0080B584B000AFF860B9607A607A68B96804
:101A7C00FB681800FFF758FDC046BD4604B080BD9A
:101A8C0080B584B000AFF860B9607A607A68B968E4
:101A9C00FB681800FFF77EFEC046BD4604B080BD53
:101AAC0080B500AFC046044B1B78DBB2002BFAD1DB
:101ABC00C046C046BD4680BDB400002080B500AF16
:101ACC00054B1B681A68044B1B6840210A431A60BB
:101ADC00C046BD4680BDC0466C01002080B582B0BA
:101AEC0000AF0200FB1D1A70A023DB0580229200C0
:101AFC009A620F4B8022D2019A620E4B1B680C33F8
:101B0C00FA1D12781A70C0460A4B1B689B6880221B
:101B1C001340F9D1064B8022D2019A61A023DB0538
:101B2C00802292009A61C046BD4602B080BDC0467C
:101B3C0000040050E000002080B582B000AF396096
:101B4C001100FB1D021C1A70BB1D0A1C1A70A0236D
:101B5C00DB05802292009A621F4B8022D2019A628E
:101B6C001E4B1B680C33FA1D12781A70C0461B4BA7
:101B7C001B689B6880221340F9D1174B8022D2013D
:101B8C009A6115E0154B1B680C333A6812781A7081
:101B9C003B6801333B60BB1D1A78BB1D013A1A70C0
:101BAC00C0460E4B1B689B6802221340022BF8D1D7
:101BBC00BB1D1B78002BE5D1C046084B1B689B68EE
:101BCC0080221340F9D1A023DB05802292009A6178
:101BDC00C046BD4602B080BD00040050E0000020AD
:101BEC0080B500AF2920FFF779FF642001F0F8F8E9
:101BFC00C046BD4680BD0000B0B584B000AF050046
:101C0C000C0010001900BB1D2A1C1A803B1D221C45
:101C1C001A80BB1C021C1A803B000A1C1A80354B14
:101C2C001B88BA1D12889A4205D1334B1B88BA1CEB
:101C3C0012889A4226D0BB1D1B881B0A9BB2DAB2B3
:101C4C000C217B181A70BB1D1B88DAB27B185A70DA
:101C5C00BB1C1B881B0A9BB2DAB27B189A70BB1C8C
:101C6C001B88DAB27B18DA707B18042219002A2040
:101C7C00FFF762FF1F4BBA1D12881A801E4BBA1C4D
:101C8C0012881A801D4B1B883A1D12889A4205D166
:101C9C001B4B1B883A0012889A4226D03B1D1B888E
:101CAC001B0A9BB2DAB20C217B181A703B1D1B88E5
:101CBC00DAB27B185A703B001B881B0A9BB2DAB253
:101CCC007B189A703B001B88DAB27B18DA707B1891
:101CDC00042219002B20FFF72FFF084B3A1D128806
:101CEC001A80074B3A0012881A80C046BD4604B0D1
:101CFC00B0BDC046100000201200002014000020CF
:101D0C0016000020F0B587B000AFF8600C00100092
:101D1C0019000A257B19221C1A800826BB19021CE3
:101D2C001A80BB1D0A1C1A805E4B01221A705E4B76
:101D3C001B681A685C4B1B6840210A431A60172306
:101D4C00FB182C221A7028003A18BB1D12881B880D
:101D5C00D3189BB2013B9CB2BA1928210823CB188B
:101D6C00DB1912881B88D3189BB2013B9AB2BB19A2
:101D7C0019883B18188813002200FFF73DFFA02399
:101D8C00DB05802292009A62484B8022D2019A6233
:101D9C00454B1B680C331722BA1812781A70C046C0
:101DAC00414B1B689B6880221340F9D13F4B80222A
:101DBC00D2019A613C4B1B68F02212015A603A4BDB
:101DCC001B681A68384B1B6840218A431A60384BD1
:101DDC001B681A68364B1B6801218A431A60324B08
:101DEC001B685A68304B1B6832490A405A60304BAA
:101DFC001B681A00304B9A4209D92D4B5B6C1C2284
:101E0C001A402E4B012191400A005A6008E0284BE1
:101E1C005B6C1C221A402A4B012191400A005A602B
:101E2C00BB1D1A88282308215B18DB191B885A4311
:101E3C001F4B1B685A601C4B1B680C331A001C4B45
:101E4C001B689A601A4B1B68FA68DA60184B1B689F
:101E5C001A68174B1B6804218A431A60144B1B68C1
:101E6C001A68134B1B680A210A431A60104B1B6833
:101E7C001A680F4B1B6801210A431A600A4B1B6836
:101E8C001A68094B1B6840210A431A60064B1B68F1
:101E9C005A68054B1B6802210A435A60C046BD466E
:101EAC0007B0F0BDB8000020E00000200004005096
:101EBC00F8010020FFBFFFFF800002400004024039
:101ECC000000024080B582B000AF0200BB1D1A803A
:101EDC000C4B1B889BB201339AB20A4B1A800A4BEB
:101EEC001B681A68084B1B6801218A431A60064B51
:101EFC001B6800225A6208F0EBFEC046BD4602B0D9
:101F0C0080BDC046B60000201803002080B582B00A
:101F1C0000AF0200BB1D1A80034B1B6801221A6024
:101F2C00C046BD4602B080BD1803002090B587B0F6
:101F3C0000AF0200FB1D1A70524B1B681A68514B04
:101F4C001B6840210A431A601020FFF7C7FD0A20C6
:101F5C0000F046FF0120FFF7C1FDC82000F040FF54
:101F6C001120FFF7BBFD782000F03AFFFB1D1B781A
:101F7C00002B06D1444B1B68DAB20823FB181A70ED
:101F8C0005E0414B9B68DAB20823FB181A70082451
:101F9C003B19012219003620FFF7CEFD21007B18DA
:101FAC0000221A707B1800225A707B1800229A703B
:101FBC007B18EF22DA700C007B18042219002A20FF
:101FCC00FFF7BAFD21007B1800221A707B18002243
:101FDC005A707B1801229A707B183F22DA700C0021
:101FEC007B18042219002B20FFF7A6FD2C20FFF7ED
:101FFC0075FD21007B1855221A700C007B180122EC
:10200C0019003A20FFF798FD21007B180A221A705C
:10201C000C007B1801221900C620FFF78DFD210052
:10202C007B1801221A707B1801225A707B1800222F
:10203C009A707B180122DA707B1801221A710C003D
:10204C007B1805221900B220FFF776FD21007B18C2
:10205C0000221A707B1800225A700C007B18022286
:10206C0019004420FFF768FD21007B1800221A702C
:10207C007B18012219003520FFF75EFDC046BD46D6
:10208C0007B090BDE00000200000002080B500AF3C
:10209C00A023DB0500220221180001F098FB64202C
:1020AC0000F09EFEA023DB0501220221180001F0A6
:1020BC008EFB642000F094FEC046BD4680BD80B50A
:1020CC0000AF00220021092000F070FF092000F071
:1020DC0082FFC046BD4680BD80B500AF024B1B7869
:1020EC00DBB21800BD4680BDB8000020F0B587B04B
:1020FC0002AFF8600C00100019000A257B19221C95
:10210C001A800826BB19021C1A80BB1D0A1C1A80D7
:10211C00BB1D1C88BB191A887B191988F8682023E9
:10212C0008255B19DB191B8800932300FFF7EAFDD8
:10213C00C046BD4605B0F0BD80B500AF304B1B6846
:10214C000222134031D02F4B1B681B680222134014
:10215C002BD02C4B1B681A682A4B1B680A218A430C
:10216C001A60284B1B681A00274B9A4203D9274B3D
:10217C0002225A6002E0224B02225A60244B0022B7
:10218C001A70C046234B1B689B6880221340F9D100
:10219C00A023DB05802292009A611E4B1B68E02273
:1021AC00D2005A6008F08DFD26E0154B1B68022208
:1021BC00134021D0134B1B681B68082213401BD003
:1021CC00104B1B681A680F4B1B680E218A431A6050
:1021DC000C4B1B681A000C4B9A4203D90B4B012277
:1021EC005A6002E0064B01225A600B4B0B4AA421A9
:1021FC0049000B4811F032F9C046BD4680BDC046BF
:10220C0000000240F801002080000240000402405F
:10221C00B8000020E000002064460108E4590108E1
:10222C006846010880B582B000AF0200BB1D1A8061
:10223C00BB1D1A880A4B1B889BB2002B04D1094B7F
:10224C001B685B6A9BB200E0074B0121934201DCE7
:10225C000023191CCBB21800BD4602B080BDC0468D
:10226C00B600002018030020FFFF000080B500AF6F
:10227C0000F030FD00F011F800F070F900F048F9B2
:10228C0000F06AF800F08CF800F0C8F800F004F9DF
:10229C0002F022FD02F027FDFCE790B595B000AFEF
:1022AC0014243B1918003C231A00002111F053F997
:1022BC003B1D180010231A00002111F04CF980234B
:1022CC009B00180001F0CAFA3B1902221A603B1954
:1022DC0080225200DA6021007B1800221A617B18E0
:1022EC0040225A617B1802221A627B1802225A621F
:1022FC007B1800229A627B180822DA627B188022F3
:10230C0092021A637B18802292045A637B188022F3
:10231C0092059A637B18180001F0E0FA031E01D0B5
:10232C0000F0F2F93B1D07221A603B1D02225A6095
:10233C003B1D00229A603B1D0022DA603B1D0221EE
:10234C00180001F031FE031E01D000F0DDF9C0468B
:10235C00BD4615B090BD000080B500AF0E4B0F4AC6
:10236C001A600D4B00221A710B4B00225A710A4B4A
:10237C0000225A61084B00229A61074B01221A6213
:10238C00054B180000F044FE031E01D000F0BCF910
:10239C00C046BD4680BDC046BC0000200030024097
:1023AC0080B500AF1B4B1C4A1A601A4B822252009C
:1023BC005A60184B00229A60164BE022D200DA6069
:1023CC00144B00221A61134B00225A61114B8022CC
:1023DC0092009A610F4B0822DA610E4B00221A62AE
:1023EC000C4B00225A620B4B00229A62094B0722BB
:1023FC00DA62084B00221A63064B00225A63054B23
:10240C00180001F05BFF031E01D000F07DF9C046FF
:10241C00BD4680BDE00000200030014080B500AF1B
:10242C001B4B1C4A1A601A4B822252005A60184BE2
:10243C0000229A60164BE022D200DA60144B002284
:10244C001A61134B00225A61114B802292009A613F
:10245C000F4B0022DA610E4B00221A620C4B002249
:10246C005A620B4B00229A62094B0722DA62084B24
:10247C0000221A63064B00225A63054B180001F028
:10248C001DFF031E01D000F03FF9C046BD4680BDC4
:10249C006C0100200038004080B584B000AF3B1DBB
:1024AC0018000C231A00002111F055F8154B164A90
:1024BC001A60144B1F225A60124B00229A60114B67
:1024CC00124ADA600F4B00229A610E4B180002F090
:1024DC0038F9031E01D000F017F93B1D10221A60C9
:1024EC003B1D00229A603A1D064B1100180002F0A9
:1024FC0065FB031E01D000F007F9C046BD4604B0D1
:10250C0080BDC046180300200010004060EA0000A7
:10251C0080B582B000AF104B9A6B0F4B01210A4370
:10252C009A630D4B9B6B012213407B607B680022EE
:10253C000021092000F03AFD092000F04CFD00229A
:10254C0000210A2000F032FD0A2000F044FDC046B4
:10255C00BD4602B080BDC0460010024090B58BB0A5
:10256C0000AF14243B19180014231A00002110F09A
:10257C00F2FF5F4B5A6B5E4B04210A435A635C4B70
:10258C005B6B042213403B613B69594B5A6B584BB4
:10259C0020210A435A63564B5B6B20221340FB608D
:1025AC00FB68534B5A6B524B01210A435A63504BF5
:1025BC005B6B01221340BB60BB684D4B5A6B4C4BA1
:1025CC0002210A435A634A4B5B6B022213407B6025
:1025DC007B684849A023DB050122180001F0F7F8BD
:1025EC008023DB0144480122190001F0F0F83B196B
:1025FC00822292011A603B1900225A603B19002278
:10260C009A603B193D4A1900100000F057FF3B1926
:10261C0001221A603B19C42292035A603B19002212
:10262C009A603A19A023DB051100180000F046FF50
:10263C003B1902221A603B1901225A603B190122F4
:10264C009A603B190222DA603A19A023DB051100CB
:10265C00180000F033FF3B19294A1A603B1900227D
:10266C005A603B1900229A603B19234A190010004A
:10267C0000F024FF21007B188022D2011A600C008C
:10268C003B1901225A603B1900229A603B19022225
:10269C00DA603B19184A1900100000F00FFF2100F6
:1026AC007B18C02292001A607B1801225A607B189A
:1026BC0000229A607B180222DA607A18A023DB05CC
:1026CC001100180000F0FAFE0E4B1A680D4B802119
:1026DC00C9030A431A6000220021052000F066FCA1
:1026EC00052000F078FCC046BD460BB090BDC0463E
:1026FC0000100240020300000004005000080050CB
:10270C00131000000000014080B500AF72B6C04647
:10271C00FEE7000080B582B000AF114B1A6C104B75
:10272C0001210A431A640E4B1B6C012213407B607F
:10273C007B680B4BDA6B0A4B802149050A43DA6341
:10274C00074BDA6B80235B0513403B603B68C0236F
:10275C00DB00180000F068FBC046BD4602B080BD2F
:10276C000010024080B584B000AF78607B681B68B5
:10277C000A4A93420DD10A4B9A6B094B80214901AD
:10278C000A439A63064B9A6B80235B011340FB60F0
:10279C00FB68C046BD4604B080BDC0460030024058
:1027AC000010024090B58DB000AF78601C243B192E
:1027BC00180014231A00002110F0CDFE7B681B6852
:1027CC008C4A93425DD18C4B1A6C8B4B8021490106
:1027DC000A431A64884B1A6C80235B011340BB615B
:1027EC00BB69854B5A6B844B01210A435A63824B5C
:1027FC005B6B012213407B617B6921007B18A0225B
:10280C001A607B1802225A607B1802229A607B188D
:10281C000322DA607B1800221A617A18A023DB05E8
:10282C001100180000F04AFE744B754A1A60734B85
:10283C0011225A60714B10229A60704B0022DA60A0
:10284C006E4B80221A616D4B802252005A616B4B89
:10285C008022D2009A61694B0022DA61674B802298
:10286C0092011A62654B180000F0A6FC031E01D001
:10287C00FFF74AFF7B68614A5A65604B7A689A6237
:10288C00B3E07B681B685F4A934200D0ADE05A4BC3
:10289C00DA6B594B8021C9010A43DA63564BDA6B68
:1028AC008023DB0113403B613B69534B5A6B524B0A
:1028BC0004210A435A63504B5B6B04221340FB60A8
:1028CC00FB684D4B5A6B4C4B02210A435A634A4BE3
:1028DC005B6B02221340BB60BB681C243B190C22AF
:1028EC001A603B1902225A603B1902229A603B196A
:1028FC000322DA603B1901221A613B19424A190082
:10290C00100000F0DBFD21007B18802292011A6080
:10291C007B1802225A607B1802229A607B180322D1
:10292C00DA607B1800221A617B18384A19001000F3
:10293C0000F0C4FD364B374A1A60354B13225A60EF
:10294C00334B10229A60324B0022DA60304B8022DB
:10295C001A612F4B00225A612D4B00229A612C4B8D
:10296C000022DA612A4B00221A62294B180000F06F
:10297C0023FC031E01D0FFF7C7FE7B68244A5A656F
:10298C00234B7A689A62244B244A1A60224B1222F7
:10299C005A60214B00229A601F4B0022DA601E4BBA
:1029AC0080221A611C4B00225A611B4B00229A6137
:1029BC00194B0022DA61184B802252011A62164B15
:1029CC00180000F0F9FB031E01D0FFF79DFE7B6899
:1029DC00114A9A65104B7A689A62002200211A20DB
:1029EC0000F0E4FA1A2000F0F6FAC046BD460DB02D
:1029FC0090BDC0460030014000100240F80100209C
:102A0C00080002400038004000080050000400504C
:102A1C005802002030000240B80200201C00024086
:102A2C0080B584B000AF78607B681B680D4A934218
:102A3C0013D10D4BDA6B0C4B10210A43DA630A4BA2
:102A4C00DB6B10221340FB60FB680022002111207D
:102A5C0000F0ACFA112000F0BEFAC046BD4604B03E
:102A6C0080BDC046001000400010024080B500AF91
:102A7C00FEE780B500AFFEE780B500AFC046BD46AF
:102A8C0080BD80B500AFC046BD4680BD80B500AFEF
:102A9C0000F08AF9C046BD4680BD80B500AF01206C
:102AAC0000F0B2FEC046BD4680BD80B500AFFFF75A
:102ABC0043FBC046BD4680BD80B500AFFEF77EFF30
:102ACC00C046BD4680BD000080B500AF034B18006A
:102ADC0001F090FEC046BD4680BDC04618030020E4
:102AEC0080B500AF034B180001F0D6FCC046BD46C4
:102AFC0080BDC0466C01002080B500AF01231800DA
:102B0C00BD4680BD80B582B000AF7860396010F0F2
:102B1C00CBFC030016221A6001235B421800BD4651
:102B2C0002B080BD80B582B000AF786001235A42FC
:102B3C007B6811001800FFF7E5FFFEE780B586B053
:102B4C0000AFF860B9607A6000237B610AE000E0B6
:102B5C0000BF0100BB685A1CBA60CAB21A707B690C
:102B6C0001337B617A697B689A42F0DB7B681800E1
:102B7C00BD4606B080BD80B586B000AFF860B960C8
:102B8C007A6000237B6109E0BB685A1CBA601B7831
:102B9C00180000E000BF7B6901337B617A697B68B8
:102BAC009A42F1DB7B681800BD4606B080BD80B54B
:102BBC0082B000AF786001235B421800BD4602B0C2
:102BCC0080BD80B582B000AF786039603B688022F0
:102BDC0092015A6000231800BD4602B080BD80B53A
:102BEC0082B000AF786001231800BD4602B080BDF2
:102BFC0080B584B000AFF860B9607A60002318002B
:102C0C00BD4604B080BD000080B586B000AF7860D2
:102C1C00144A154BD31A7B617B693B61134B1B68C0
:102C2C00002B02D1114B124A1A60104B1A687B68A8
:102C3C00D3183A699A4207D210F036FC03000C22E2
:102C4C001A6001235B4209E0084B1B68FB60074BD1
:102C5C001A687B68D218054B1A60FB681800BD46D1
:102C6C0006B080BD00400220000800006403002074
:102C7C00E828002080B500AFC046BD4680BD0000EE
:102C8C000D488546FFF7F6FF0C480D490D4A002309
:102C9C0002E0D458C4500433C4188C42F9D30A4A05
:102CAC000A4C002301E013600432A242FBD310F063
:102CBC0011FCFFF7DBFAFEE70040022000000020C9
:102CCC0098000020C488010898000020E828002003
:102CDC00FEE7000080B582B000AFFB1D00221A7029
:102CEC000B4B1A680A4B802149000A431A600020DA
:102CFC0000F010F8031E03D0FB1D01221A7001E036
:102D0C00FFF708FDFB1D1B781800BD4602B080BD07
:102D1C000020024090B585B000AF78600F23FB18FF
:102D2C0000221A701D4B1B78002B2BD01C4B1C68DF
:102D3C001A4B1B781900FA239800FDF7F1F90300E0
:102D4C0019002000FDF7ECF90300180000F053F90E
:102D5C00031E12D17B68032B0AD8796801235B42CE
:102D6C000022180000F022F90E4B7A681A600DE070
:102D7C000F23FB1801221A7008E00F23FB18012205
:102D8C001A7003E00F23FB1801221A700F23FB1893
:102D9C001B781800BD4605B090BDC0462000002031
:102DAC00180000201C00002080B500AF054B1B78DC
:102DBC001A00054B1B68D218034B1A60C046BD465F
:102DCC0080BDC046200000206803002080B500AF05
:102DDC00024B1B681800BD4680BDC046680300202E
:102DEC0080B584B000AF7860FFF7F0FF0300BB60E4
:102DFC007B68FB60FB68013305D00A4B1B781A001B
:102E0C00FB689B18FB60C046FFF7E0FF0200BB6845
:102E1C00D31AFA689A42F7D8C046C046BD4604B0E9
:102E2C0080BDC0462000002080B582B000AF786025
:102E3C00064B1B68064A13401900044B7A680A4378
:102E4C001A60C046BD4602B080BDC04600000140BD
:102E5C00FFF9FFFF80B582B000AF0200FB1D1A70B6
:102E6C00FB1D1B787F2B09D8FB1D1B781A001F2319
:102E7C001A40044B012191400A001A60C046BD461D
:102E8C0002B080BD00E100E090B583B000AF02005D
:102E9C003960FB1D1A70FB1D1B787F2B28D82F4A1D
:102EAC00FB1D1B785BB29B08C0339B009B58FA1D23
:102EBC001278110003220A40D200FF2191400A002F
:102ECC00D2431A4011003B689B01FF221A40FB1DA4
:102EDC001B78180003230340DB009A401F48FB1D9E
:102EEC001B785BB29B080A43C0339B001A5031E03D
:102EFC001B4AFB1D1B7819000F230B40083B9B083A
:102F0C0006339B00D31804331B68FA1D127811008A
:102F1C0003220A40D200FF2191400A00D2431A40FA
:102F2C0011003B689B01FF221A40FB1D1B78180007
:102F3C0003230340DB009A400948FB1D1B781C004F
:102F4C000F232340083B9B080A4306339B00C318FE
:102F5C0004331A60C046BD4603B090BD00E100E0EA
:102F6C0000ED00E080B582B000AF78607B685A1E3F
:102F7C0080235B049A4201D3012310E00A4B7A6848
:102F8C00013A5A6001235B4203211800FFF77CFFD2
:102F9C00054B00229A60044B07221A60002318008C
:102FAC00BD4602B080BDC04610E000E080B584B0E4
:102FBC0000AFB9607A600F217B18021C1A70BA68D6
:102FCC007B181B785BB211001800FFF75DFFC04641
:102FDC00BD4604B080BD80B582B000AF0200FB1DC1
:102FEC001A70FB1D1B785BB21800FFF733FFC0464D
:102FFC00BD4602B080BD80B582B000AF78607B6802
:10300C001800FFF7AFFF03001800BD4602B080BDEB
:10301C0080B582B000AF78607B68002B01D10123B2
:10302C0056E07B685B7FDBB2002B06D17B6800220D
:10303C001A777B681800FFF795FB7B6802225A779A
:10304C007B681B79002B0CD17B681B68224A5A6168
:10305C007B681B689A687B681B6818218A439A6096
:10306C000BE07B6899687B68DA687B68180000F075
:10307C0035F8031E01D001232AE07B685B79002B15
:10308C0005D17B681B68012252421A6104E07B68FF
:10309C001B687A6812691A617B681B689B686022DE
:1030AC00934319007B685A697B681B680A439A60D2
:1030BC007B681B689B688022934319007B689A6924
:1030CC007B681B680A439A607B6801225A7700234D
:1030DC001800BD4602B080BDB71DC10480B586B0D6
:1030EC0000AFF860B9607A601723FB1800221A70E1
:1030FC001F233B61C0463B695A1E3A61002B08D026
:10310C003B691F221340BA68DA40130001221340B6
:10311C00F1D07B68182B0FD07B68182B24D87B68D8
:10312C00102B11D07B68102B1ED87B68002B20D065
:10313C007B68082B10D017E03B69062B1BD9172393
:10314C00FB1801221A7016E03B69072B15D91723BF
:10315C00FB1801221A7010E03B690F2B0FD91723B3
:10316C00FB1801221A700AE01723FB1801221A70AF
:10317C0006E0C04604E0C04602E0C04600E0C0469F
:10318C001723FB181B78002B0ED1FB681B68BA6841
:10319C005A61FB681B689B68182293431900FB68F3
:1031AC001B687A680A439A601723FB181B7818006F
:1031BC00BD4606B080BD000080B582B000AF78601F
:1031CC007B68002B01D1012391E07B681B681A00FE
:1031DC00494B9A4210D87B681B68484A9446634412
:1031EC0014211800FCF79CFF03009A007B685A64BA
:1031FC007B68434A1A640FE07B681B68414A94461B
:10320C00634414211800FCF78BFF03009A007B68C1
:10321C005A647B683C4A1A647B68252202219954C3
:10322C007B681B681A687B681B6838490A401A60FF
:10323C007B681B6819687B689A687B68DB681A4333
:10324C007B681B691A437B685B691A437B689B69C3
:10325C001A437B68DB691A437B681B6A1A437B68D9
:10326C001B680A431A607B68180000F0B9F87B6889
:10327C009A688023DB019A4202D17B6800225A6053
:10328C007B685A687B689B6C7F210A401A607B685C
:10329C00DB6C7A68126D5A607B685B68002B11D00E
:1032AC007B685B68042B0DD87B68180000F0E2F893
:1032BC007B685B6D00221A607B689B6D7A68D26DAF
:1032CC005A6008E07B6800225A657B6800229A6588
:1032DC007B680022DA657B680022DA637B68252232
:1032EC00012199547B682422002199540023180051
:1032FC00BD4602B080BDC04607040240F8FFFDBFCA
:10330C0000000240F8FBFDBF000402400F80FFFFED
:10331C0080B584B000AF78600F217B1800221A7042
:10332C007B6825229B5CDBB2022B06D07B680422D7
:10333C00DA637B1801221A7048E07B681B681A68F4
:10334C007B681B680E218A431A607B681B681A68AD
:10335C007B681B6801218A431A607B689B6C1A6826
:10336C007B689B6C1D490A401A607B685B6C1C2255
:10337C001A407B681B6C012191400A005A607B68E3
:10338C00DB6C7A68126D5A607B685B6D002B0CD01D
:10339C007B685B6D1A687B685B6D10490A401A602C
:1033AC007B689B6D7A68D26D5A607B6825220121FF
:1033BC0099547B682422002199547B689B6B002BC9
:1033CC0004D07B689B6B7A68100098470F23FB181E
:1033DC001B781800BD4604B080BDC046FFFEFFFF41
:1033EC0080B584B000AF78607B681B681A001D4BF9
:1033FC009A4214D87B685B6C9B089B001A4A9A18FB
:10340C007B689A647B681B681A00FF231340083B97
:10341C0014211800FCF784FE0300FB6014E07B68A9
:10342C005B6C9B089B00114A9A187B689A647B68BA
:10343C001B681A00FF231340083B14211800FCF7EB
:10344C006FFE03000733FB607B68094ADA64FB6894
:10345C001F22134001229A407B681A65C046BD4664
:10346C0004B080BD07040240000802401C08024062
:10347C008008024080B584B000AF78607B685B68E0
:10348C007F221340FB60FB680A4A944663449B000E
:10349C001A007B685A657B68074A9A65FB68013B92
:1034AC000322134001229A407B68DA65C046BD4670
:1034BC0004B080BD3F8200104009024080B586B048
:1034CC0000AF7860396000237B614DE13B681B687D
:1034DC0001217A6991400A001340FB60FB68002BC4
:1034EC0000D13EE13B685B6803221340012B05D001
:1034FC003B685B6803221340022B30D17B689B68CE
:10350C003B617B695B0003229A401300DA433B6901
:10351C0013403B613B68DA687B695B009A4013009F
:10352C003A6913433B617B683A699A607B685B68D4
:10353C003B6101227B699A401300DA433B691340DB
:10354C003B613B685B681B0901221A407B699A400E
:10355C0013003A6913433B617B683A695A603B68D4
:10356C005B6803221340032B17D07B68DB683B613D
:10357C007B695B0003229A401300DA433B691340DA
:10358C003B613B689A687B695B009A4013003A691F
:10359C0013433B617B683A69DA603B685B680322E2
:1035AC001340022B23D17B69DA087B680832920026
:1035BC00D3583B617B69072213409B000F229A4032
:1035CC001300DA433B6913403B613B681A697B6922
:1035DC0007210B409B009A4013003A6913433B614F
:1035EC007B69DA087B68083292003969D1507B68B4
:1035FC001B683B617B695B0003229A401300DA4332
:10360C003B6913403B613B685B6803221A407B6952
:10361C005B009A4013003A6913433B617B683A693B
:10362C001A603B685A68C0239B02134000D198E093
:10363C00534A7B699B0818339B009B583B617B6901
:10364C0003221340DB000F229A401300DA433B693C
:10365C0013403B617A68A023DB059A4219D07B6842
:10366C00484A934213D07B68474A93420DD07B68FB
:10367C00464A934207D07B68454A934201D10423C2
:10368C0008E0052306E0032304E0022302E0012303
:10369C0000E000237A6903210A40D20093403A6982
:1036AC0013433B6136497B699B0818339B003A698D
:1036BC005A50334A8023D3583B61FB68DA433B6949
:1036CC0013403B613B685A6880235B02134003D074
:1036DC003A69FB6813433B61294980223B698B5053
:1036EC00274A8423D3583B61FB68DA433B69134078
:1036FC003B613B685A6880239B02134003D03A69B4
:10370C00FB6813433B611E4984223B698B501C4B65
:10371C001B683B61FB68DA433B6913403B613B68C8
:10372C005A6880235B03134003D03A69FB68134348
:10373C003B61134B3A691A60114B5B683B61FB6848
:10374C00DA433B6913403B613B685A6880239B0317
:10375C00134003D03A69FB6813433B61084B3A6949
:10376C005A607B6901337B613B681A687B69DA407C
:10377C00131E00D0AAE6C046C046BD4606B080BDAA
:10378C00001802400004005000080050000C0050CB
:10379C000010005080B584B000AF78600A00BB1CEC
:1037AC001A807B681B69BA1C1288134004D00F2343
:1037BC00FB1801221A7003E00F23FB1800221A7069
:1037CC000F23FB181B781800BD4604B080BD80B5D4
:1037DC0082B000AF786008001100BB1C021C1A807C
:1037EC007B1C0A1C1A707B1C1B78002B04D0BB1C86
:1037FC001A887B689A6103E0BB1C1A887B689A6202
:10380C00C046BD4602B080BD80B582B000AF02009C
:10381C00BB1D1A80104BDB68BA1D1288134008D0F0
:10382C000D4BBA1D1288DA60BB1D1B881800FEF701
:10383C0049FB094B1B69BA1D1288134008D0064B73
:10384C00BA1D12881A61BB1D1B881800FEF75EFB9F
:10385C00C046BD4602B080BD0018024080B584B0A1
:10386C0000AF7860194B1B68194A13401900174BAD
:10387C007A680A431A607A6880239B009A421FD1A7
:10388C00144B1A6813005B009B185B00124918005C
:10389C00FCF746FC03000133FB6008E0FB68002BDF
:1038AC0003D0FB68013BFB6001E0032309E0074BFD
:1038BC005A698023DB001A408023DB009A42EDD04A
:1038CC0000231800BD4604B080BDC0460070004007
:1038DC00FFF9FFFF1800002040420F0080B588B0B0
:1038EC0000AF78607B68002B02D1012300F056FBFF
:1038FC007B681B680122134000D17DE0C34B9B68A1
:10390C0038221340BB61C14BDB68032213407B613F
:10391C00BB69102B02D17B69032B02D0BB69082B2E
:10392C000CD1BA4B1A6880239B02134063D07B687E
:10393C005B68002B5FD1012300F030FB7B685A6879
:10394C0080235B029A4207D1B04B1A68AF4B80219F
:10395C0049020A431A6020E07B685A68A023DB0204
:10396C009A420ED1A94B1A68A84B8021C9020A436E
:10397C001A60A64B1A68A54B802149020A431A60AB
:10398C000BE0A24B1A68A14BA1490A401A609F4B4D
:10399C001A689E4B9F490A401A607B685B68002B33
:1039AC0014D0FFF713FA03003B6108E0FFF70EFA9F
:1039BC0002003B69D31A642B01D90323EEE2934B2B
:1039CC001A6880239B021340F0D015E0FFF7FEF934
:1039DC0003003B6108E0FFF7F9F902003B69D31AD9
:1039EC00642B01D90323D9E2884B1A6880239B02EC
:1039FC001340F0D100E0C0467B681B6802221340E4
:103A0C0000D199E0814B9B6838221340BB617F4BFE
:103A1C00DB68032213407B61BB69102B02D17B69ED
:103A2C00022B02D0BB69002B35D1784B1A6880234E
:103A3C00DB00134005D07B68DB68002B01D1012330
:103A4C00ACE2724B5B68744A134019007B685B698B
:103A5C001A026E4B0A435A60BB69002B12D16B4B96
:103A6C001B686E4A134019007B681A69674B0A433E
:103A7C001A60664B1B68DB0A07221340684ADA405F
:103A8C00684B1A60684B1B681800FFF743F9031E5C
:103A9C0051D0012382E27B68DB68002B30D05B4B7A
:103AAC001B685E4A134019007B681A69574B0A431E
:103ABC001A60564B1A68554B802149000A431A600C
:103ACC00FFF784F903003B6108E0FFF77FF9020080
:103ADC003B69D31A022B01D903235FE24B4B1A68C3
:103AEC008023DB001340F0D0484B5B684A4A1340FC
:103AFC0019007B685B691A02444B0A435A601BE04D
:103B0C00424B1A68414B49490A401A60FFF75EF96B
:103B1C0003003B6108E0FFF759F902003B69D31A37
:103B2C00022B01D9032339E2384B1A688023DB00BE
:103B3C001340F0D100E0C0467B681B68082213409C
:103B4C0047D0324B9B6838221340182B0AD12F4B8D
:103B5C001B6E022213403CD07B689B69002B38D132
:103B6C0001231BE27B689B69002B19D0274B1A6E33
:103B7C00264B01210A431A66FFF728F903003B6123
:103B8C0008E0FFF723F902003B69D31A022B01D995
:103B9C00032303E21D4B1B6E02221340F1D018E0ED
:103BAC001A4B1A6E194B01218A431A66FFF70EF94C
:103BBC0003003B6108E0FFF709F902003B69D31AE7
:103BCC00022B01D90323E9E1104B1B6E0222134097
:103BDC00F1D17B681B680422134000D1C6E01F237F
:103BEC00FB1800221A70094B9B6838221340202BBB
:103BFC001ED1064BDB6D0222134000D1B6E07B6870
:103C0C009B68002B00D0B1E00123C7E100100240FB
:103C1C00FFFFFEFFFFFFFBFFFF80FFFFFFC7FFFF64
:103C2C000024F400180000201C000020FFFEFFFF01
:103C3C00B84BDA6B80235B05134001D1012300E004
:103C4C000023002B11D0B34BDA6BB24B802149050A
:103C5C000A43DA63AF4BDA6B80235B051340FB60DE
:103C6C00FB681F23FB1801221A70AB4B1A688023C8
:103C7C005B0013401AD1A84B1A68A74B802149004E
:103C8C000A431A60FFF7A2F803003B6108E0FFF754
:103C9C009DF802003B69D31A022B01D903237DE165
:103CAC009D4B1A6880235B001340F0D07B689B68A7
:103CBC00012B06D1974BDA6D964B01210A43DA653D
:103CCC001CE07B689B68052B0CD1924BDA6D914BF9
:103CDC0004210A43DA658F4BDA6D8E4B01210A43BE
:103CEC00DA650BE08B4BDA6D8A4B01218A43DA657E
:103CFC00884BDA6D874B04218A43DA657B689B68B5
:103D0C00002B14D0FFF762F803003B6109E0FFF7CA
:103D1C005DF802003B69D31A804A934201D9032310
:103D2C003CE17C4BDB6D02221340F0D013E0FFF73B
:103D3C004DF803003B6109E0FFF748F802003B69CE
:103D4C00D31A764A934201D9032327E1714BDB6DD9
:103D5C0002221340F0D11F23FB181B78012B05D135
:103D6C006C4BDA6B6B4B6E490A40DA637B681B68F1
:103D7C002022134039D07B68DB69002B1BD0654BAC
:103D8C001A68644B8021C9030A431A60FFF71EF8B6
:103D9C0003003B6108E0FFF719F802003B69D31AF6
:103DAC00022B01D90323F9E05A4B1A6880231B0418
:103DBC001340F0D019E0574B1A68564B59490A403A
:103DCC001A60FFF703F803003B6108E0FEF7FEFF03
:103DDC0002003B69D31A022B01D90323DEE04D4BC1
:103DEC001A6880231B041340F0D17B681B6A002BDC
:103DFC0000D1D2E0474B9B6838221340102B00D1E6
:103E0C0081E07B681B6A022B56D1424B1A68414BEE
:103E1C0045490A401A60FEF7D9FF03003B6108E0F0
:103E2C00FEF7D4FF02003B69D31A022B01D90323FE
:103E3C00B4E0384B1A6880239B041340F0D1354B07
:103E4C00DB683A4A134019007B685A6A7B689B6AA4
:103E5C001A437B68DB6A1B021A437B681B6B1A4391
:103E6C007B685B6B1A437B689B6B1A43294B0A4339
:103E7C00DA60284B1A68274B802149040A431A60E0
:103E8C00244BDA68234B802149050A43DA60FEF79C
:103E9C009DFF03003B6108E0FEF798FF02003B69C1
:103EAC00D31A022B01D9032378E01A4B1A6880230A
:103EBC009B041340F0D070E0164B1A68154B1A494E
:103ECC000A401A60134BDA68124B03218A43DA60FA
:103EDC00104BDA680F4B16490A40DA60FEF776FF92
:103EEC0003003B6108E0FEF771FF02003B69D31A47
:103EFC00022B01D9032351E0064B1A6880239B0443
:103F0C001340F0D149E07B681B6A012B12D10123CD
:103F1C0044E0C046001002400070004088130000CE
:103F2C00FFFFFFEFFFFFBFFFFFFFFFFE8C80C11104
:103F3C00FFFFFEEE1B4BDB687B617B6903221A40A3
:103F4C007B685B6A9A4226D17B6970221A407B6837
:103F5C009B6A9A421FD17A69FE23DB011A407B6867
:103F6C00DB6A1B029A4216D17A69F8239B031A402A
:103F7C007B681B6B9A420ED17A69E0231B051A40B1
:103F8C007B685B6B9A4206D17B695B0F5A077B6837
:103F9C009B6B9A4201D0012300E000231800BD4620
:103FAC0008B080BD0010024080B584B000AF7860CE
:103FBC0039607B68002B01D10123E9E0764B1B684B
:103FCC00072213403A689A421ED9734B1B6807228A
:103FDC0093431900704B3A680A431A60FEF7F6FED9
:103FEC000300FB6009E0FEF7F1FE0200FB68D31A48
:103FFC006A4A934201D90323CAE0674B1B68072224
:10400C0013403A689A42EED17B681B680222134037
:10401C0015D07B681B680422134006D0604B9A684D
:10402C005F4BE021C9010A439A605D4B9B685D4A76
:10403C00134019007B689A68594B0A439A607B6855
:10404C001B680122134057D07B685B68012B07D19A
:10405C00534B1A6880239B0213402BD1012397E00A
:10406C007B685B68022B07D14D4B1A6880239B043D
:10407C0013401FD101238BE07B685B68002B07D1B9
:10408C00474B1A688023DB00134013D101237FE0D8
:10409C007B685B68032B06D1414B1B6E02221340DD
:1040AC0008D1012374E03E4BDB6D0222134001D199
:1040BC0001236DE03A4B9B680722934319007B6800
:1040CC005A68374B0A439A60FEF780FE0300FB6088
:1040DC0009E0FEF77BFE0200FB68D31A2F4A9342DD
:1040EC0001D9032354E02E4B9B6838221A407B687D
:1040FC005B68DB009A42ECD1274B1B68072213400C
:10410C003A689A421ED2244B1B680722934319002B
:10411C00214B3A680A431A60FEF758FE0300FB6015
:10412C0009E0FEF753FE0200FB68D31A1B4A9342C8
:10413C0001D903232CE0184B1B68072213403A6863
:10414C009A42EED17B681B680422134009D0144BB1
:10415C009B68154A134019007B68DA68104B0A43B8
:10416C009A6000F029F801000D4B9B681B0A0F2286
:10417C001A400E4B9200D3581F2213400A00DA400B
:10418C000B4B1A600B4B1B681800FEF7C3FD0300AA
:10419C001800BD4604B080BD00200240881300000A
:1041AC0000100240FFF0FFFFFF8FFFFF085A0108CD
:1041BC00180000201C00002080B586B000AF3C4BDE
:1041CC009B68382213400FD1394B1B68DB0A07223E
:1041DC00134001229A4013003B6039683548FBF7C5
:1041EC009FFF03003B615DE0314B9B68382213401D
:1041FC00082B02D1304B3B6154E02D4B9B6838228D
:10420C001340102B38D12A4BDB6803221340FB6080
:10421C00274BDB681B09072213400133BB60FB688B
:10422C00032B0DD1B9682448FBF77AFF0300190062
:10423C001F4BDB681B0A7F2213404B437B610DE055
:10424C00B9681C48FBF76CFF03001900184BDB68BE
:10425C001B0A7F2213404B437B61C046144BDB6827
:10426C005B0F0722134001337B6079687869FBF799
:10427C0057FF03003B6115E00D4B9B683822134040
:10428C00202B03D180231B023B610BE0084B9B6866
:10429C0038221340182B03D1FA23DB013B6101E0D8
:1042AC0000233B613B691800BD4606B080BDC0468B
:1042BC00001002400024F40000127A0080B584B093
:1042CC0000AF78607B68002B01D10123CCE07B68C8
:1042DC005B6A002B09D17B685A6882235B009A4287
:1042EC0009D07B680022DA6105E07B6800221A6144
:1042FC007B6800225A617B6800229A627B685D228F
:10430C009B5CDBB2002B2BD17B685C220021995487
:10431C007B68574A5A667B68564A9A667B68564A47
:10432C00DA667B68554A1A677B68554A5A677B6818
:10433C00544A9A677B68544ADA677B688021534AEF
:10434C005A507B6884229B58002B03D17B688421B4
:10435C004F4A5A507B6884229B587A6810009847C1
:10436C007B685D22022199547B681B681A687B6804
:10437C001B6840218A431A607B68DA68E023DB0003
:10438C009A4202D90023FB6002E080235B01FB60B0
:10439C007B68DA68F0231B019A4208D07B68DA68E4
:1043AC00E023DB009A4202D07B6800229A627B6891
:1043BC005A6882235B001A407B68996884231B022D
:1043CC000B401A437B681B6902210B401A437B6824
:1043DC005B6901210B401A437B68996980239B0020
:1043EC000B401A437B68DB6938210B401A437B680E
:1043FC001B6A80210B401A4311007B689A6A802348
:10440C009B011A407B681B680A431A607B689B6996
:10441C001B0C04221A407B685B6A10210B401A4368
:10442C007B685B6B08210B401A437B68D968F023CF
:10443C001B010B401A431100FA6880235B011A40E0
:10444C007B681B680A435A607B681B68DA697B6867
:10445C001B6810490A40DA617B6800221A667B6887
:10446C005D220121995400231800BD4604B080BD83
:10447C00A1460008B1460008C1460008D146000814
:10448C00E1460008F1460008014700081147000802
:10449C00B1270008FFF7FFFF80B588B000AF786048
:1044AC007B681B685B68FB617B681B689B68BB61F6
:1044BC00BB699B091A00012313400FD1BB69012270
:1044CC0013400BD0FB699B091A000123134005D044
:1044DC007B68DB6C7A6810009847D6E0BB695B0898
:1044EC001A00012313400BD0FB69DB091A000123CE
:1044FC00134005D07B681B6D7A6810009847C4E0A8
:10450C00BB695B091A00012313400CD1BB699B09E1
:10451C001A000123134006D1BB691B0A1A000123A0
:10452C00134000D1B1E0FB695B091A000123134071
:10453C0000D1AAE0BB699B091A000123134023D0C8
:10454C007B685D229B5CDBB2032B11D07B681B6EFE
:10455C0004221A437B681A6600237B617B681B6804
:10456C00DB687B617B681B689B687B617B690BE00C
:10457C0000233B617B681B68DB683B617B681B68C5
:10458C009B683B613B6980E0BB695B091A000123B6
:10459C00134014D07B681B6E01221A437B681A6689
:1045AC000023FB607B681B689B68FB607B681B6857
:1045BC001A687B681B6840218A431A60FB68BB69D8
:1045CC001B0A1A00012313400CD07B681B6E0822B7
:1045DC001A437B681A660023BB607B681B689B6868
:1045EC00BB60BB687B681B6E002B4DD07B681B6867
:1045FC005A687B681B68E0218A435A607B685D229D
:10460C0001219954FB690222134003D1FB69012259
:10461C00134032D07B681B685A687B681B68032187
:10462C008A435A607B689B6D002B10D07B689B6D16
:10463C00174A9A637B689B6D1800FEF769FE031E90
:10464C0005D07B681B6E40221A437B681A667B6818
:10465C005B6D002B17D07B685B6D0D4A9A637B6892
:10466C005B6D1800FEF754FE031E0CD07B681B6EAE
:10467C0040221A437B681A6605E07B68DB6F7A6818
:10468C001000984700E0C046C046BD4608B080BD4B
:10469C002147000880B582B000AF7860C046BD46A7
:1046AC0002B080BD80B582B000AF7860C046BD4618
:1046BC0002B080BD80B582B000AF7860C046BD4608
:1046CC0002B080BD80B582B000AF7860C046BD46F8
:1046DC0002B080BD80B582B000AF7860C046BD46E8
:1046EC0002B080BD80B582B000AF7860C046BD46D8
:1046FC0002B080BD80B582B000AF7860C046BD46C8
:10470C0002B080BD80B582B000AF7860C046BD46B7
:10471C0002B080BD80B584B000AF78607B689B6AC6
:10472C00FB60FB68462200219952FB680022DA8765
:10473C00FB68DB6FFA6810009847C046BD4604B0B2
:10474C0080BD80B582B000AF78607B68002B01D152
:10475C0001234AE07B683D229B5CDBB2002B07D136
:10476C007B683C22002199547B681800FEF758F9AD
:10477C007B683D22022199547B681A687B6804335C
:10478C001900100000F090F97B684822012199541F
:10479C007B683E22012199547B683F220121995468
:1047AC007B684022012199547B6841220121995454
:1047BC007B684222012199547B6843220121995440
:1047CC007B684422012199547B684522012199542C
:1047DC007B684622012199547B6847220121995418
:1047EC007B683D220121995400231800BD4602B07C
:1047FC0080BD000080B582B000AF78607B681B681C
:10480C001B6902221340022B24D17B681B68DB68D6
:10481C0002221340022B1DD17B681B6803225242DB
:10482C001A617B6801221A777B681B689B690322DB
:10483C00134004D07B68180000F01EF907E07B6879
:10484C00180000F011F97B68180000F01DF97B6866
:10485C0000221A777B681B681B6904221340042B07
:10486C0025D17B681B68DB6804221340042B1ED106
:10487C007B681B68052252421A617B6802221A77F8
:10488C007B681B689A69C0239B00134004D07B682B
:10489C00180000F0F1F807E07B68180000F0E4F86D
:1048AC007B68180000F0F0F87B6800221A777B68B0
:1048BC001B681B6908221340082B24D17B681B68DA
:1048CC00DB6808221340082B1DD17B681B6809226A
:1048DC0052421A617B6804221A777B681B68DB6979
:1048EC000322134004D07B68180000F0C5F807E0E1
:1048FC007B68180000F0B8F87B68180000F0C4F86A
:10490C007B6800221A777B681B681B691022134096
:10491C00102B25D17B681B68DB6810221340102BF1
:10492C001ED17B681B68112252421A617B680822D7
:10493C001A777B681B68DA69C0239B00134004D08C
:10494C007B68180000F098F807E07B68180000F00E
:10495C008BF87B68180000F097F87B6800221A77B8
:10496C007B681B681B6901221340012B0FD17B68EC
:10497C001B68DB6801221340012B08D17B681B6884
:10498C00022252421A617B68180000F065F87B68BD
:10499C001B681B6980221340802B0FD17B681B681E
:1049AC00DB6880221340802B08D17B681B68812236
:1049BC0052421A617B68180000F07EF97B681B6814
:1049CC001A6980235B001A4080235B009A420ED147
:1049DC007B681B68DB6880221340802B07D17B68C7
:1049EC001B681C4A1A617B68180000F06DF97B6823
:1049FC001B681B6940221340402B0FD17B681B683E
:104A0C00DB6840221340402B08D17B681B68412295
:104A1C0052421A617B68180000F03EF87B681B68F4
:104A2C001B6920221340202B0FD17B681B68DB688D
:104A3C0020221340202B08D17B681B682122524274
:104A4C001A617B68180000F02FF9C046BD4602B011
:104A5C0080BDC046FFFEFFFF80B582B000AF78601E
:104A6C00C046BD4602B080BD80B582B000AF786054
:104A7C00C046BD4602B080BD80B582B000AF786044
:104A8C00C046BD4602B080BD80B582B000AF786034
:104A9C00C046BD4602B080BD80B582B000AF786024
:104AAC00C046BD4602B080BD80B584B000AF786012
:104ABC0039607B681B68FB607B68384A93420CD07A
:104ACC007A688023DB059A4207D07B68344A93428C
:104ADC0003D07B68334A934208D1FB68702293431E
:104AEC00FB603B685B68FA681343FB607B682B4A8E
:104AFC0093421CD07A688023DB059A4217D07B68DE
:104B0C00274A934213D07B68264A93420FD07B6886
:104B1C00254A93420BD07B68244A934207D07B688A
:104B2C00234A934203D07B68224A934208D1FB6804
:104B3C00214A1340FB603B68DB68FA681343FB6057
:104B4C00FB68802293431A003B685B691343FB604C
:104B5C007B68FA681A603B689A687B68DA623B6823
:104B6C001A687B689A627B680C4A93420BD07B680C
:104B7C000E4A934207D07B680D4A934203D07B6860
:104B8C000C4A934203D13B681A697B681A637B68B1
:104B9C0001225A61C046BD4604B080BD002C0140C4
:104BAC00000400400008004000200040004001408C
:104BBC000044014000480140FFFCFFFF80B584B079
:104BCC0000AF786039607B683C229B5C012B01D183
:104BDC0002235AE07B683C22012199547B683D22D8
:104BEC00022199547B681B685B68FB607B681B68BF
:104BFC009B68BB607B681B68264A934208D1FB68A4
:104C0C00254A1340FB603B685B68FA681343FB6002
:104C1C00FB6870229343FB603B681B68FA68134384
:104C2C00FB607B681B68FA685A607B681B68194AD2
:104C3C00934214D07B681A688023DB059A420ED00D
:104C4C007B681B68154A934209D07B681B68144A21
:104C5C00934204D07B681B68124A93420CD1BB6808
:104C6C0080229343BB603B689B68BA681343BB606C
:104C7C007B681B68BA689A607B683D220121995455
:104C8C007B683C220021995400231800BD4604B0D7
:104C9C0080BDC046002C0140FFFF0FFF0004004008
:104CAC00000800400040014080B582B000AF786041
:104CBC00C046BD4602B080BD80B582B000AF786002
:104CCC00C046BD4602B080BD80B582B000AF7860F2
:104CDC00C046BD4602B080BD80B500AF05F02AFBD2
:104CEC00C046BD4680BD80B500AF05F05DFBC0463B
:104CFC00BD4680BD80B582B000AF7860034A7B684A
:104D0C001A607B681800BD4602B080BD645A010869
:104D1C0080B582B000AF78607B681800FFF7EAFFBF
:104D2C007B68042118000EF069FB7B681800BD46F7
:104D3C0002B080BD80B582B000AF78600A00BB1CA9
:104D4C001A80BB1C1B88022B0FD013DC002B02D04B
:104D5C00012B05D00EE003F0D3FD03001B680AE025
:104D6C0003F0CEFD03005B6805E003F0C9FD030012
:104D7C009B6800E000231800BD4602B080BD000017
:104D8C0080B582B000AF7860054A7B681A607B689A
:104D9C001800FFF7AFFF7B681800BD4602B080BD5E
:104DAC00505A010880B582B000AF78607B6818005B
:104DBC00FFF7E6FF7B68042118000EF01FFB7B68F1
:104DCC001800BD4602B080BD80B582B000AF7860DF
:104DDC00034A7B681A607B681800BD4602B080BD30
:104DEC00BC5E010880B582B000AF78607B681800AB
:104DFC00FFF7EAFF7B68102118000EF0FFFA7B68C2
:104E0C001800BD4602B080BDB0B586B000AF78606A
:104E1C000A00BB1C1A80BB1C1B88002B01D1002371
:104E2C0014E000233B610F217B1800221A707B6871
:104E3C001B6808331C687D181023FA18BB1C1988D2
:104E4C0078682B00A04703007B617B691800BD4686
:104E5C0006B0B0BD80B582B000AF78607B685B896E
:104E6C001800BD4602B080BD80B582B000AF78603E
:104E7C007B689B891800BD4602B080BD80B582B0AE
:104E8C0000AF78607B689B881800BD4602B080BD7F
:104E9C0080B582B000AF78607B689A887B689B791C
:104EAC009BB2D3189BB21800BD4602B080BD80B532
:104EBC0082B000AF78607B68DB795B065B0EDBB29F
:104ECC001800BD4602B080BD80B582B000AF7860DE
:104EDC007B68DB791B06DB0FDBB21800BD4602B02A
:104EEC0080BD000080B582B000AF7860034A7B685B
:104EFC001A607B681800BD4602B080BD785A010864
:104F0C0080B582B000AF78607B681800FFF7EAFFCD
:104F1C007B68082118000EF071FA7B681800BD46FA
:104F2C0002B080BD80B500AF024B180000F056F8FF
:104F3C00BD4680BD7003002080B58CB00CAF204BFB
:104F4C001B78BFF35B8FDBB21A00012313405A426C
:104F5C005341DBB2002B2FD0194B18000EF052FA34
:104F6C0003005A1E9341DBB2002B25D0154A16497B
:104F7C00164800230B9300230A93002309933F2325
:104F8C000893134B0793134B0693002305930023AD
:104F9C0004930123039304230293002301930A2314
:104FAC000093012300F06AF90B4B18000EF074FA11
:104FBC00034B18000EF033FA044B1800BD4680BDAD
:104FCC009C030020D8870108CC10079070030020A8
:104FDC0098870108805A0108314F000880B582B0CB
:104FEC0000AF7860054A7B681A607B681800FFF791
:104FFC00EBFE7B681800BD4602B080BD945A0108D8
:10500C0080B582B000AF78607B681800FFF7E6FFD0
:10501C007B682C2118000EF0F1F97B681800BD4656
:10502C0002B080BD80B500AF024B1800FFF7D6FF71
:10503C00BD4680BDA003002080B58CB00CAF204BCA
:10504C001B78BFF35B8FDBB21A00012313405A426B
:10505C005341DBB2002B2FD0194B18000EF0D2F9B4
:10506C0003005A1E9341DBB2002B25D0154A16497A
:10507C00164800230B9300230A93002309933F2324
:10508C000893134B0793134B0693012305930023AB
:10509C000493012303930423029300230193142309
:1050AC0000931A2300F0EAF80B4B18000EF0F4F9F9
:1050BC00034B18000EF0B3F9044B1800BD4680BD2D
:1050CC00CC030020DC870108DC100790A003002033
:1050DC009C870108845A01083150000880B500AF44
:1050EC00024B1800FFF77AFFBD4680BDD0030020AD
:1050FC0080B58CB00CAF204B1B78BFF35B8FDBB251
:10510C001A00012313405A425341DBB2002B2FD01B
:10511C00194B18000EF076F903005A1E9341DBB2BE
:10512C00002B25D0154A1649164800230B93002353
:10513C000A93002309933F230893134B0793134BB4
:10514C000693002305930023049301230393042364
:10515C0002930023019328230093012300F08EF87F
:10516C000B4B18000EF098F9034B18000EF057F982
:10517C00044B1800BD4680BDFC03002010880108BC
:10518C0048120790D0030020D4870108885A0108E0
:10519C00E950000890B583B000AF78600C001000A7
:1051AC001900BB1C221C1A807B1C021C1A703B00B1
:1051BC000A1C1A70214A7B681A607B68BA1C128818
:1051CC009A807B687A1C12789A713B001B787F223C
:1051DC001340DAB27B687F210A401000DA797F2114
:1051EC008A43111C021C0A43DA711823FB181B7822
:1051FC0001221340DAB27B68D001DA797F210A40B0
:10520C00111C021C0A43DA717B681C22BA18127832
:10521C001A727B682022BA1812785A727B68242280
:10522C00BA1812885A817B682822BA1812889A8177
:10523C007B681800BD4603B090BDC046BC5E01083B
:10524C0080B500AF024B1B681800BD4680BDC04640
:10525C006C03002080B582B000AF78607B685B6A1D
:10526C001800BD4602B080BD80B582B000AF78603A
:10527C007B689B6A1800BD4602B080BD90B58BB0B0
:10528C0006AFF860B9607A601A00BB1C1A80F86827
:10529C002823FB181C782423FB181A782023FB18CE
:1052AC0019884423FB181B8804934023FB181B8884
:1052BC0003933423FB181B7802933023FB181B78C1
:1052CC0001932C23FB181B7800932300FFF762FF3C
:1052DC000E4AFB681A60FB68BA681A61FB68BA1C54
:1052EC0012889A82FB687A689A61FB68BA6BDA61F9
:1052FC00FB68FA6B1A62FB68BA6C5A62FB68FA6C50
:10530C009A62FB681800BD4605B090BD945A01081E
:10531C0090B587B000AFF8607A603B600A203B180C
:10532C000A1C1A803B181A88FB681100180000F040
:10533C00A6F803007B617B6901332BD0FFF780FF5C
:10534C0003003B613B691B680C331C68FB681969E3
:10535C007A691300DB009B1A5B00C918104A386984
:10536C000E23A047FB681B684C331B680C49FA687A
:10537C001000984702007B681A60FA68FB681B688B
:10538C0034331B681000984703001A003B681A70EE
:10539C00034B00E000231800BD4607B090BDC0468B
:1053AC000004002080B584B000AF786039607B6861
:1053BC00DB69FB603B689B88DB0A9BB29B00FA684D
:1053CC00D3181A683B6819885B881B040B43D318E5
:1053DC001800BD4604B080BD80B588B000AFF86041
:1053EC007A600A23FB180A1C1A807B68002B03D0F6
:1053FC007B681B7B002B01D100233CE0FB681A6A05
:10540C007B687B617B695B7B1B0219B2E023DB0051
:10541C000B4019B27B69DB7A1BB20B431BB29BB2FC
:10542C009B00D318FB617B681A7B1A23FB181A802C
:10543C001A23FB181B88002B1CD0FB691B880A2223
:10544C00BA1812889A4203D1FB699B785BB212E0BE
:10545C00FB691B880A22BA1812889A4209D31A21AE
:10546C007B181A887B18013A1A80FB690433FB619C
:10547C00DEE7C04600231800BD4608B080BD80B5ED
:10548C0086B000AF78600A00BB1C1A8000237B61D9
:10549C007B689B8A013B3B61BB1C1A887B689969C2
:1054AC007B695B00CB181B88D31A7A69D318FB6015
:1054BC00FA687B699A4202DA01235B4290E0FA684F
:1054CC003B699A421FDD7B689A693B695B00D31884
:1054DC001B881A00BB1C1B88D31A3A69D31AFB60B1
:1054EC00FA683B699A4202DD01235B4278E0FA6874
:1054FC007B699A4207DA7A693B69D318002B00DA88
:10550C0001335B10FB607A693B699A4200DD65E010
:10551C007B689A69FB685B00D3181B88BA1C1288DD
:10552C009A4201D1FB685BE07B689A69FB685B007F
:10553C00D3181B88BA1C12889A4224D2FB68013BF0
:10554C003B613A697B699A4241DB7B689A693B69AA
:10555C005B00D3181B881A00BB1C1B88D31A3A6932
:10556C00D31AFB60FA683B699A4232DCFA687B69B1
:10557C009A42C8DA7A693B69D318002B00DA0133F6
:10558C005B10FB60BFE7FB6801337B617A693B69A9
:10559C009A4220DCBB1C1A887B6899697B695B008A
:1055AC00CB181B88D31A7A69D318FB60FA687B690D
:1055BC009A4212DBFA683B699A42A4DD7A693B692C
:1055CC00D318002B00DA01335B10FB609BE7C0465D
:1055DC0004E0C04602E0C04600E0C04601235B4246
:1055EC001800BD4606B080BD80B582B000AF7860B3
:1055FC0039603B681800BD4602B080BD80B582B0F2
:10560C0000AF78603960C046BD4602B080BD80B541
:10561C0082B000AF78603960C046BD4602B080BD34
:10562C0080B582B000AF78603960C046BD4602B02C
:10563C0080BD80B582B000AF78600A00FB1C1A7088
:10564C00C046BD4602B080BD80B582B000AF786068
:10565C00C046BD4602B080BD80B582B000AF786058
:10566C00C046BD4602B080BD80B582B000AF786048
:10567C00034A7B681A607B681800BD4602B080BD87
:10568C00EC5B010880B582B000AF78607B681800D5
:10569C00FFF7EAFF7B68042118000DF0AFFE7B6872
:1056AC001800BD4602B080BD80B582B000AF7860F6
:1056BC000A00FB1C1A70C046BD4602B080BD80B506
:1056CC0082B000AF786039607A6896235B003968E5
:1056DC00D318082218000DF035FFC046BD4602B0A5
:1056EC0080BD000080B582B000AF7860034A7B6853
:1056FC001A607B681800BD4602B080BDD45B0108FF
:10570C0080B582B000AF78607B681800FFF7EAFFC5
:10571C007B68042118000DF071FE7B681800BD46F3
:10572C0002B080BD80B582B000AF7860064A7B685D
:10573C001A607B6800225A607B6800221A727B68B0
:10574C001800BD4602B080BDB05B010880B582B0C8
:10575C0000AF7860034A7B681A607B681800BD460E
:10576C0002B080BDB05B010880B582B000AF78603C
:10577C007B681800FFF7EAFF7B680C2118000DF01E
:10578C003DFE7B681800BD4602B080BD80B582B07E
:10579C0000AF7860C046BD4602B080BD80B582B017
:1057AC0000AF7860C046BD4602B080BD80B582B007
:1057BC0000AF7860C046BD4602B080BD80B582B0F7
:1057CC0000AF786009F030F803001A6830321268C4
:1057DC0018009047C046BD4602B080BD80B582B06F
:1057EC0000AF786039607B683A685A60C046BD4645
:1057FC0002B080BD80B582B000AF7860054A7B688E
:10580C001A607B681800FFF72FFF7B681800BD46F5
:10581C0002B080BD6874010880B582B000AF7860BA
:10582C007B681800FFF7E6FF9C235A007B68110089
:10583C0018000DF0E3FD7B681800BD4602B080BD7A
:10584C0080B582B000AF78607B68180009F00CF866
:10585C000A4A7B681A607A689C235B000021D1504D
:10586C007A689E235B000021D1507A68044B1A6041
:10587C007B681800BD4602B080BDC0466C5B010859
:10588C000027002080B582B000AF78607B681800DC
:10589C0000F004F8C046BD4602B080BD80B582B0B1
:1058AC0000AF78607A689E235B00D358002B10D031
:1058BC007A689E235B00D1587A689E235B00D3588C
:1058CC001B680C331B6808009847031E01D001238A
:1058DC0000E00023002B11D07A689E235B00D15886
:1058EC007A689E235B00D3581B6808331B6808003A
:1058FC0098477A689E235B000021D150C046BD4674
:10590C0002B080BD80B582B000AF786039607B6832
:10591C003A681A60C046BD4602B080BD80B582B000
:10592C0000AF7860054A7B681A607B681800FFF747
:10593C0061FF7B681800BD4602B080BD6C5B01083E
:10594C0080B582B000AF78607B681800FFF7E6FF87
:10595C00A0235A007B68110018000DF04FFD7B68E6
:10596C001800BD4602B080BD80B582B000AF786033
:10597C00084A7B681A607B684133FF33180001F0DA
:10598C006FF97B681800FFF7C9FF7B681800BD46EC
:10599C0002B080BD105B010880B582B000AF7860AA
:1059AC007B681800FFF7E0FFAC235A007B681100FE
:1059BC0018000DF023FD7B681800BD4602B080BDB9
:1059CC0080B582B000AF78607B6801221A72C04645
:1059DC00BD4602B080BD80B582B000AF7860396042
:1059EC007B683A685A60C046BD4602B080BD000074
:1059FC0080B584B000AFF860B9607A60FB681800BD
:105A0C00FFF71EFF114AFB681A60FB684133FF3336
:105A1C00180000F0D5F9FA68A8235B007968D1501A
:105A2C00FA68AA235B00B968D150FBF717FC030096
:105A3C001A6808321268012118009047002002F001
:105A4C00E3FEFB681800BD4604B080BD105B010886
:105A5C0080B582B000AF786039607B681800BD46B5
:105A6C0002B080BD80B582B000AF786039607B68D1
:105A7C003A6811001800FFF7EBFF3B685A687B6827
:105A8C005A607B683A680833083203CA03C37B68E0
:105A9C001800BD4602B080BDB0B588B000AF7860CC
:105AAC007B684133FF331C0018217B18104A1A60A5
:105ABC007B1800225A607B187968082578191A68B7
:105ACC005B6800F099F97B1919002000FFF7CAFFF9
